{
  "_format": "hh-sol-artifact-1",
  "contractName": "deploy",
  "sourceName": "contracts/Lock.sol",
  "abi": [
    {
      "anonymous": false,
      "inputs": [
        {
          "indexed": false,
          "internalType": "address",
          "name": "_oracle",
          "type": "address"
        },
        {
          "indexed": false,
          "internalType": "int256",
          "name": "_price",
          "type": "int256"
        },
        {
          "indexed": false,
          "internalType": "uint256",
          "name": "_settlementDate",
          "type": "uint256"
        },
        {
          "indexed": false,
          "internalType": "uint256",
          "name": "decay",
          "type": "uint256"
        },
        {
          "indexed": false,
          "internalType": "uint256",
          "name": "minRatio",
          "type": "uint256"
        },
        {
          "indexed": false,
          "internalType": "uint256",
          "name": "minRatioDate",
          "type": "uint256"
        },
        {
          "indexed": false,
          "internalType": "string",
          "name": "name",
          "type": "string"
        },
        {
          "indexed": false,
          "internalType": "string",
          "name": "acronym",
          "type": "string"
        },
        {
          "indexed": false,
          "internalType": "address",
          "name": "poolAddress",
          "type": "address"
        }
      ],
      "name": "PoolCreated",
      "type": "event"
    },
    {
      "inputs": [
        {
          "internalType": "address",
          "name": "oracle",
          "type": "address"
        },
        {
          "internalType": "int256",
          "name": "price",
          "type": "int256"
        },
        {
          "internalType": "uint256",
          "name": "settlementDate",
          "type": "uint256"
        },
        {
          "internalType": "uint256",
          "name": "decay",
          "type": "uint256"
        },
        {
          "internalType": "uint256",
          "name": "minRatio",
          "type": "uint256"
        },
        {
          "internalType": "uint256",
          "name": "minRatioDate",
          "type": "uint256"
        },
        {
          "internalType": "string",
          "name": "name",
          "type": "string"
        },
        {
          "internalType": "string",
          "name": "acronym",
          "type": "string"
        }
      ],
      "name": "createPool",
      "outputs": [
        {
          "internalType": "address",
          "name": "newPool",
          "type": "address"
        }
      ],
      "stateMutability": "nonpayable",
      "type": "function"
    }
  ],
  "bytecode": "0x608060405234801561001057600080fd5b5061596c806100206000396000f3fe60806040523480156200001157600080fd5b50600436106200002e5760003560e01c8063cb04a4ee1462000033575b600080fd5b6200005160048036038101906200004b919062000368565b62000069565b60405162000060919062000480565b60405180910390f35b60008888888888888888604051620000819062000109565b6200009498979695949392919062000552565b604051809103906000f080158015620000b1573d6000803e3d6000fd5b5090507f62198cf3f06ffd6bd3ef2f946eea52fb5619849248c341cfcaafa89e3d441e6a898989898989898989604051620000f599989796959493929190620005ee565b60405180910390a198975050505050505050565b61529b806200069c83390190565b6000604051905090565b600080fd5b600080fd5b600073ffffffffffffffffffffffffffffffffffffffff82169050919050565b600062000158826200012b565b9050919050565b6200016a816200014b565b81146200017657600080fd5b50565b6000813590506200018a816200015f565b92915050565b6000819050919050565b620001a58162000190565b8114620001b157600080fd5b50565b600081359050620001c5816200019a565b92915050565b6000819050919050565b620001e081620001cb565b8114620001ec57600080fd5b50565b6000813590506200020081620001d5565b92915050565b600080fd5b600080fd5b6000601f19601f8301169050919050565b7f4e487b7100000000000000000000000000000000000000000000000000000000600052604160045260246000fd5b6200025b8262000210565b810181811067ffffffffffffffff821117156200027d576200027c62000221565b5b80604052505050565b60006200029262000117565b9050620002a0828262000250565b919050565b600067ffffffffffffffff821115620002c357620002c262000221565b5b620002ce8262000210565b9050602081019050919050565b82818337600083830152505050565b600062000301620002fb84620002a5565b62000286565b90508281526020810184848401111562000320576200031f6200020b565b5b6200032d848285620002db565b509392505050565b600082601f8301126200034d576200034c62000206565b5b81356200035f848260208601620002ea565b91505092915050565b600080600080600080600080610100898b0312156200038c576200038b62000121565b5b60006200039c8b828c0162000179565b9850506020620003af8b828c01620001b4565b9750506040620003c28b828c01620001ef565b9650506060620003d58b828c01620001ef565b9550506080620003e88b828c01620001ef565b94505060a0620003fb8b828c01620001ef565b93505060c089013567ffffffffffffffff8111156200041f576200041e62000126565b5b6200042d8b828c0162000335565b92505060e089013567ffffffffffffffff81111562000451576200045062000126565b5b6200045f8b828c0162000335565b9150509295985092959890939650565b6200047a816200014b565b82525050565b60006020820190506200049760008301846200046f565b92915050565b620004a88162000190565b82525050565b620004b981620001cb565b82525050565b600081519050919050565b600082825260208201905092915050565b60005b83811015620004fb578082015181840152602081019050620004de565b838111156200050b576000848401525b50505050565b60006200051e82620004bf565b6200052a8185620004ca565b93506200053c818560208601620004db565b620005478162000210565b840191505092915050565b6000610100820190506200056a600083018b6200046f565b62000579602083018a6200049d565b620005886040830189620004ae565b620005976060830188620004ae565b620005a66080830187620004ae565b620005b560a0830186620004ae565b81810360c0830152620005c9818562000511565b905081810360e0830152620005df818462000511565b90509998505050505050505050565b60006101208201905062000606600083018c6200046f565b62000615602083018b6200049d565b62000624604083018a620004ae565b620006336060830189620004ae565b620006426080830188620004ae565b6200065160a0830187620004ae565b81810360c083015262000665818662000511565b905081810360e08301526200067b818562000511565b90506200068d6101008301846200046f565b9a995050505050505050505056fe608060405260006009556000600a553480156200001b57600080fd5b506040516200529b3803806200529b83398181016040528101906200004191906200065c565b426000819055508560018190555060005460015462000061919062000792565b6002819055508660038190555087600460006101000a81548173ffffffffffffffffffffffffffffffffffffffff021916908373ffffffffffffffffffffffffffffffffffffffff16021790555084600581905550836006819055508260078190555060006040518060400160405280600481526020017f4f766572000000000000000000000000000000000000000000000000000000008152509050600083826040516020016200011592919062000840565b604051602081830303815290604052905060006040518060400160405280600581526020017f556e6465720000000000000000000000000000000000000000000000000000008152509050600085826040516020016200017792919062000840565b604051602081830303815290604052905060006040518060400160405280600381526020017f504f530000000000000000000000000000000000000000000000000000000000815250905060008682604051602001620001d992919062000840565b604051602081830303815290604052905060006040518060400160405280600381526020017f4e454700000000000000000000000000000000000000000000000000000000008152509050600088826040516020016200023b92919062000840565b604051602081830303815290604052905086836040516200025c90620003d6565b62000269929190620008d6565b604051809103906000f08015801562000286573d6000803e3d6000fd5b50600d60006101000a81548173ffffffffffffffffffffffffffffffffffffffff021916908373ffffffffffffffffffffffffffffffffffffffff1602179055508481604051620002d790620003d6565b620002e4929190620008d6565b604051809103906000f08015801562000301573d6000803e3d6000fd5b50600e60006101000a81548173ffffffffffffffffffffffffffffffffffffffff021916908373ffffffffffffffffffffffffffffffffffffffff1602179055506000600860006101000a81548160ff021916908315150217905550600460009054906101000a900473ffffffffffffffffffffffffffffffffffffffff16600f60006101000a81548173ffffffffffffffffffffffffffffffffffffffff021916908373ffffffffffffffffffffffffffffffffffffffff1602179055505050505050505050505050505050505062000911565b61200e806200328d83390190565b6000604051905090565b600080fd5b600080fd5b600073ffffffffffffffffffffffffffffffffffffffff82169050919050565b60006200042582620003f8565b9050919050565b620004378162000418565b81146200044357600080fd5b50565b60008151905062000457816200042c565b92915050565b6000819050919050565b62000472816200045d565b81146200047e57600080fd5b50565b600081519050620004928162000467565b92915050565b6000819050919050565b620004ad8162000498565b8114620004b957600080fd5b50565b600081519050620004cd81620004a2565b92915050565b600080fd5b600080fd5b6000601f19601f8301169050919050565b7f4e487b7100000000000000000000000000000000000000000000000000000000600052604160045260246000fd5b6200052882620004dd565b810181811067ffffffffffffffff821117156200054a5762000549620004ee565b5b80604052505050565b60006200055f620003e4565b90506200056d82826200051d565b919050565b600067ffffffffffffffff82111562000590576200058f620004ee565b5b6200059b82620004dd565b9050602081019050919050565b60005b83811015620005c8578082015181840152602081019050620005ab565b83811115620005d8576000848401525b50505050565b6000620005f5620005ef8462000572565b62000553565b905082815260208101848484011115620006145762000613620004d8565b5b62000621848285620005a8565b509392505050565b600082601f830112620006415762000640620004d3565b5b815162000653848260208601620005de565b91505092915050565b600080600080600080600080610100898b03121562000680576200067f620003ee565b5b6000620006908b828c0162000446565b9850506020620006a38b828c0162000481565b9750506040620006b68b828c01620004bc565b9650506060620006c98b828c01620004bc565b9550506080620006dc8b828c01620004bc565b94505060a0620006ef8b828c01620004bc565b93505060c089015167ffffffffffffffff811115620007135762000712620003f3565b5b620007218b828c0162000629565b92505060e089015167ffffffffffffffff811115620007455762000744620003f3565b5b620007538b828c0162000629565b9150509295985092959890939650565b7f4e487b7100000000000000000000000000000000000000000000000000000000600052601160045260246000fd5b60006200079f8262000498565b9150620007ac8362000498565b925082821015620007c257620007c162000763565b5b828203905092915050565b600081519050919050565b600081905092915050565b6000620007f082620007cd565b620007fc8185620007d8565b93506200080e818560208601620005a8565b80840191505092915050565b7f2d00000000000000000000000000000000000000000000000000000000000000815250565b60006200084e8285620007e3565b91506200085b826200081a565b6001820191506200086d8284620007e3565b91508190509392505050565b600081519050919050565b600082825260208201905092915050565b6000620008a28262000879565b620008ae818562000884565b9350620008c0818560208601620005a8565b620008cb81620004dd565b840191505092915050565b60006040820190508181036000830152620008f2818562000895565b9050818103602083015262000908818462000895565b90509392505050565b61296c80620009216000396000f3fe60806040526004361061012a5760003560e01c80637fa948d2116100ab578063e1a431d21161006f578063e1a431d214610336578063ec2c0e6314610361578063f07540a01461038c578063f3fecc51146103b7578063fb04e00b146103ce578063fbcd927c146103e55761012a565b80637fa948d21461025f578063893942111461028a5780638cb73feb146102b5578063b18b78dd146102e0578063ce2ab9711461030b5761012a565b80634c3e73cf116100f25780634c3e73cf146101d1578063680baeb8146101db5780636ac715e4146102065780637130e97e1461021d5780637dc0d1d0146102345761012a565b806304d420ea1461012f57806305efc04a1461015a578063117d49421461016457806311da60b41461018f578063227a414f146101a6575b600080fd5b34801561013b57600080fd5b506101446103fc565b6040516101519190611e91565b60405180910390f35b610162610413565b005b34801561017057600080fd5b50610179610718565b6040516101869190611f2b565b60405180910390f35b34801561019b57600080fd5b506101a461073e565b005b3480156101b257600080fd5b506101bb610872565b6040516101c89190611f5f565b60405180910390f35b6101d961087c565b005b3480156101e757600080fd5b506101f0610aa7565b6040516101fd9190611e91565b60405180910390f35b34801561021257600080fd5b5061021b610abe565b005b34801561022957600080fd5b50610232610d82565b005b34801561024057600080fd5b50610249610dfd565b6040516102569190611f9b565b60405180910390f35b34801561026b57600080fd5b50610274610e23565b6040516102819190611f5f565b60405180910390f35b34801561029657600080fd5b5061029f610e2d565b6040516102ac9190611f2b565b60405180910390f35b3480156102c157600080fd5b506102ca610e53565b6040516102d79190611f5f565b60405180910390f35b3480156102ec57600080fd5b506102f5610e5d565b6040516103029190611fd7565b60405180910390f35b34801561031757600080fd5b50610320610e87565b60405161032d9190611f5f565b60405180910390f35b34801561034257600080fd5b5061034b610e91565b6040516103589190611e91565b60405180910390f35b34801561036d57600080fd5b50610376610e9d565b604051610383919061200b565b60405180910390f35b34801561039857600080fd5b506103a1610ea7565b6040516103ae9190611f5f565b60405180910390f35b3480156103c357600080fd5b506103cc610f06565b005b3480156103da57600080fd5b506103e361138a565b005b3480156103f157600080fd5b506103fa61164e565b005b6000600860019054906101000a900460ff16905090565b600154421061042157600080fd5b66038d7ea4c68000341161046a576040517f08c379a000000000000000000000000000000000000000000000000000000000815260040161046190612083565b60405180910390fd5b600e60009054906101000a900473ffffffffffffffffffffffffffffffffffffffff1673ffffffffffffffffffffffffffffffffffffffff1663a0712d68346040518263ffffffff1660e01b81526004016104c59190611f5f565b600060405180830381600087803b1580156104df57600080fd5b505af11580156104f3573d6000803e3d6000fd5b505050506105443334600e60009054906101000a900473ffffffffffffffffffffffffffffffffffffffff1673ffffffffffffffffffffffffffffffffffffffff16611ad29092919063ffffffff16565b600080544261055391906120d2565b9050600062015180600554836105699190612106565b610573919061218f565b9050600081600161058491906120d2565b9050600034826105949190612106565b9050600e60009054906101000a900473ffffffffffffffffffffffffffffffffffffffff1673ffffffffffffffffffffffffffffffffffffffff1663a0712d68826040518263ffffffff1660e01b81526004016105f19190611f5f565b600060405180830381600087803b15801561060b57600080fd5b505af115801561061f573d6000803e3d6000fd5b505050506106703382600e60009054906101000a900473ffffffffffffffffffffffffffffffffffffffff1673ffffffffffffffffffffffffffffffffffffffff16611ad29092919063ffffffff16565b34600a5461067e91906121c0565b600a8190555034600c60003373ffffffffffffffffffffffffffffffffffffffff1673ffffffffffffffffffffffffffffffffffffffff168152602001908152602001600020546106cf91906121c0565b600c60003373ffffffffffffffffffffffffffffffffffffffff1673ffffffffffffffffffffffffffffffffffffffff1681526020019081526020016000208190555050505050565b600d60009054906101000a900473ffffffffffffffffffffffffffffffffffffffff1681565b6001544211610782576040517f08c379a000000000000000000000000000000000000000000000000000000000815260040161077990612262565b60405180910390fd5b60001515600860019054906101000a900460ff161515146107a257600080fd5b6000600f60009054906101000a900473ffffffffffffffffffffffffffffffffffffffff1673ffffffffffffffffffffffffffffffffffffffff1663feaf968c6040518163ffffffff1660e01b815260040160a06040518083038186803b15801561080c57600080fd5b505afa158015610820573d6000803e3d6000fd5b505050506040513d601f19601f820116820180604052508101906108449190612321565b505050915050600354811261086f576001600860006101000a81548160ff0219169083151502179055505b50565b6000600754905090565b600154421061088a57600080fd5b66038d7ea4c6800034116108d3576040517f08c379a00000000000000000000000000000000000000000000000000000000081526004016108ca90612083565b60405180910390fd5b60008054426108e291906120d2565b9050600062015180600554836108f89190612106565b610902919061218f565b9050600081600161091391906120d2565b9050600034826109239190612106565b9050600d60009054906101000a900473ffffffffffffffffffffffffffffffffffffffff1673ffffffffffffffffffffffffffffffffffffffff1663a0712d68826040518263ffffffff1660e01b81526004016109809190611f5f565b600060405180830381600087803b15801561099a57600080fd5b505af11580156109ae573d6000803e3d6000fd5b505050506109ff3382600d60009054906101000a900473ffffffffffffffffffffffffffffffffffffffff1673ffffffffffffffffffffffffffffffffffffffff16611ad29092919063ffffffff16565b34600954610a0d91906121c0565b60098190555034600b60003373ffffffffffffffffffffffffffffffffffffffff1673ffffffffffffffffffffffffffffffffffffffff16815260200190815260200160002054610a5e91906121c0565b600b60003373ffffffffffffffffffffffffffffffffffffffff1673ffffffffffffffffffffffffffffffffffffffff1681526020019081526020016000208190555050505050565b6000600860009054906101000a900460ff16905090565b60011515600860019054906101000a900460ff16151514610b14576040517f08c379a0000000000000000000000000000000000000000000000000000000008152600401610b0b906123e8565b60405180910390fd5b6000600e60009054906101000a900473ffffffffffffffffffffffffffffffffffffffff1673ffffffffffffffffffffffffffffffffffffffff166370a08231336040518263ffffffff1660e01b8152600401610b719190611fd7565b60206040518083038186803b158015610b8957600080fd5b505afa158015610b9d573d6000803e3d6000fd5b505050506040513d601f19601f82011682018060405250810190610bc19190612408565b11610c01576040517f08c379a0000000000000000000000000000000000000000000000000000000008152600401610bf890612481565b60405180910390fd5b610cfa3330600e60009054906101000a900473ffffffffffffffffffffffffffffffffffffffff1673ffffffffffffffffffffffffffffffffffffffff166370a08231336040518263ffffffff1660e01b8152600401610c619190611fd7565b60206040518083038186803b158015610c7957600080fd5b505afa158015610c8d573d6000803e3d6000fd5b505050506040513d601f19601f82011682018060405250810190610cb19190612408565b600e60009054906101000a900473ffffffffffffffffffffffffffffffffffffffff1673ffffffffffffffffffffffffffffffffffffffff16611b58909392919063ffffffff16565b3373ffffffffffffffffffffffffffffffffffffffff166108fc600c60003373ffffffffffffffffffffffffffffffffffffffff1673ffffffffffffffffffffffffffffffffffffffff168152602001908152602001600020549081150290604051600060405180830381858888f19350505050158015610d7f573d6000803e3d6000fd5b50565b6007544210610dc6576040517f08c379a0000000000000000000000000000000000000000000000000000000008152600401610dbd906124ed565b60405180910390fd5b600a54600954610dd6919061218f565b6006541015610dfb576001600860016101000a81548160ff0219169083151502179055505b565b600f60009054906101000a900473ffffffffffffffffffffffffffffffffffffffff1681565b6000600554905090565b600e60009054906101000a900473ffffffffffffffffffffffffffffffffffffffff1681565b6000600154905090565b6000600460009054906101000a900473ffffffffffffffffffffffffffffffffffffffff16905090565b6000600654905090565b60006001544211905090565b6000600354905090565b60008060005442610eb891906120d2565b905060006064600554610ecb919061218f565b90506000620151808284610edf9190612106565b610ee9919061218f565b90506000816001610efa91906120d2565b90508094505050505090565b60001515600860019054906101000a900460ff16151514610f5c576040517f08c379a0000000000000000000000000000000000000000000000000000000008152600401610f5390612559565b60405180910390fd5b6001544211610fa0576040517f08c379a0000000000000000000000000000000000000000000000000000000008152600401610f9790612262565b60405180910390fd5b60001515600860009054906101000a900460ff16151514610ff6576040517f08c379a0000000000000000000000000000000000000000000000000000000008152600401610fed906125c5565b60405180910390fd5b6000600e60009054906101000a900473ffffffffffffffffffffffffffffffffffffffff1673ffffffffffffffffffffffffffffffffffffffff166370a08231336040518263ffffffff1660e01b81526004016110539190611fd7565b60206040518083038186803b15801561106b57600080fd5b505afa15801561107f573d6000803e3d6000fd5b505050506040513d601f19601f820116820180604052508101906110a39190612408565b116110e3576040517f08c379a00000000000000000000000000000000000000000000000000000000081526004016110da90612481565b60405180910390fd5b6000600e60009054906101000a900473ffffffffffffffffffffffffffffffffffffffff1673ffffffffffffffffffffffffffffffffffffffff166318160ddd6040518163ffffffff1660e01b815260040160206040518083038186803b15801561114d57600080fd5b505afa158015611161573d6000803e3d6000fd5b505050506040513d601f19601f820116820180604052508101906111859190612408565b47600e60009054906101000a900473ffffffffffffffffffffffffffffffffffffffff1673ffffffffffffffffffffffffffffffffffffffff166370a08231336040518263ffffffff1660e01b81526004016111e19190611fd7565b60206040518083038186803b1580156111f957600080fd5b505afa15801561120d573d6000803e3d6000fd5b505050506040513d601f19601f820116820180604052508101906112319190612408565b61123b9190612106565b611245919061218f565b90506113403330600e60009054906101000a900473ffffffffffffffffffffffffffffffffffffffff1673ffffffffffffffffffffffffffffffffffffffff166370a08231336040518263ffffffff1660e01b81526004016112a79190611fd7565b60206040518083038186803b1580156112bf57600080fd5b505afa1580156112d3573d6000803e3d6000fd5b505050506040513d601f19601f820116820180604052508101906112f79190612408565b600e60009054906101000a900473ffffffffffffffffffffffffffffffffffffffff1673ffffffffffffffffffffffffffffffffffffffff16611b58909392919063ffffffff16565b3373ffffffffffffffffffffffffffffffffffffffff166108fc829081150290604051600060405180830381858888f19350505050158015611386573d6000803e3d6000fd5b5050565b60011515600860019054906101000a900460ff161515146113e0576040517f08c379a00000000000000000000000000000000000000000000000000000000081526004016113d7906123e8565b60405180910390fd5b6000600d60009054906101000a900473ffffffffffffffffffffffffffffffffffffffff1673ffffffffffffffffffffffffffffffffffffffff166370a08231336040518263ffffffff1660e01b815260040161143d9190611fd7565b60206040518083038186803b15801561145557600080fd5b505afa158015611469573d6000803e3d6000fd5b505050506040513d601f19601f8201168201806040525081019061148d9190612408565b116114cd576040517f08c379a00000000000000000000000000000000000000000000000000000000081526004016114c490612481565b60405180910390fd5b6115c63330600d60009054906101000a900473ffffffffffffffffffffffffffffffffffffffff1673ffffffffffffffffffffffffffffffffffffffff166370a08231336040518263ffffffff1660e01b815260040161152d9190611fd7565b60206040518083038186803b15801561154557600080fd5b505afa158015611559573d6000803e3d6000fd5b505050506040513d601f19601f8201168201806040525081019061157d9190612408565b600d60009054906101000a900473ffffffffffffffffffffffffffffffffffffffff1673ffffffffffffffffffffffffffffffffffffffff16611b58909392919063ffffffff16565b3373ffffffffffffffffffffffffffffffffffffffff166108fc600b60003373ffffffffffffffffffffffffffffffffffffffff1673ffffffffffffffffffffffffffffffffffffffff168152602001908152602001600020549081150290604051600060405180830381858888f1935050505015801561164b573d6000803e3d6000fd5b50565b60001515600860019054906101000a900460ff161515146116a4576040517f08c379a000000000000000000000000000000000000000000000000000000000815260040161169b90612559565b60405180910390fd5b60015442116116e8576040517f08c379a00000000000000000000000000000000000000000000000000000000081526004016116df90612262565b60405180910390fd5b60011515600860009054906101000a900460ff1615151461173e576040517f08c379a0000000000000000000000000000000000000000000000000000000008152600401611735906125c5565b60405180910390fd5b6000600d60009054906101000a900473ffffffffffffffffffffffffffffffffffffffff1673ffffffffffffffffffffffffffffffffffffffff166370a08231336040518263ffffffff1660e01b815260040161179b9190611fd7565b60206040518083038186803b1580156117b357600080fd5b505afa1580156117c7573d6000803e3d6000fd5b505050506040513d601f19601f820116820180604052508101906117eb9190612408565b1161182b576040517f08c379a000000000000000000000000000000000000000000000000000000000815260040161182290612481565b60405180910390fd5b6000600d60009054906101000a900473ffffffffffffffffffffffffffffffffffffffff1673ffffffffffffffffffffffffffffffffffffffff166318160ddd6040518163ffffffff1660e01b815260040160206040518083038186803b15801561189557600080fd5b505afa1580156118a9573d6000803e3d6000fd5b505050506040513d601f19601f820116820180604052508101906118cd9190612408565b47600d60009054906101000a900473ffffffffffffffffffffffffffffffffffffffff1673ffffffffffffffffffffffffffffffffffffffff166370a08231336040518263ffffffff1660e01b81526004016119299190611fd7565b60206040518083038186803b15801561194157600080fd5b505afa158015611955573d6000803e3d6000fd5b505050506040513d601f19601f820116820180604052508101906119799190612408565b6119839190612106565b61198d919061218f565b9050611a883330600d60009054906101000a900473ffffffffffffffffffffffffffffffffffffffff1673ffffffffffffffffffffffffffffffffffffffff166370a08231336040518263ffffffff1660e01b81526004016119ef9190611fd7565b60206040518083038186803b158015611a0757600080fd5b505afa158015611a1b573d6000803e3d6000fd5b505050506040513d601f19601f82011682018060405250810190611a3f9190612408565b600d60009054906101000a900473ffffffffffffffffffffffffffffffffffffffff1673ffffffffffffffffffffffffffffffffffffffff16611b58909392919063ffffffff16565b3373ffffffffffffffffffffffffffffffffffffffff166108fc829081150290604051600060405180830381858888f19350505050158015611ace573d6000803e3d6000fd5b5050565b611b538363a9059cbb60e01b8484604051602401611af19291906125e5565b604051602081830303815290604052907bffffffffffffffffffffffffffffffffffffffffffffffffffffffff19166020820180517bffffffffffffffffffffffffffffffffffffffffffffffffffffffff8381831617835250505050611be1565b505050565b611bdb846323b872dd60e01b858585604051602401611b799392919061260e565b604051602081830303815290604052907bffffffffffffffffffffffffffffffffffffffffffffffffffffffff19166020820180517bffffffffffffffffffffffffffffffffffffffffffffffffffffffff8381831617835250505050611be1565b50505050565b6000611c43826040518060400160405280602081526020017f5361666545524332303a206c6f772d6c6576656c2063616c6c206661696c65648152508573ffffffffffffffffffffffffffffffffffffffff16611ca89092919063ffffffff16565b9050600081511115611ca35780806020019051810190611c639190612671565b611ca2576040517f08c379a0000000000000000000000000000000000000000000000000000000008152600401611c9990612710565b60405180910390fd5b5b505050565b6060611cb78484600085611cc0565b90509392505050565b606082471015611d05576040517f08c379a0000000000000000000000000000000000000000000000000000000008152600401611cfc906127a2565b60405180910390fd5b6000808673ffffffffffffffffffffffffffffffffffffffff168587604051611d2e919061283c565b60006040518083038185875af1925050503d8060008114611d6b576040519150601f19603f3d011682016040523d82523d6000602084013e611d70565b606091505b5091509150611d8187838387611d8d565b92505050949350505050565b60608315611df057600083511415611de857611da885611e03565b611de7576040517f08c379a0000000000000000000000000000000000000000000000000000000008152600401611dde9061289f565b60405180910390fd5b5b829050611dfb565b611dfa8383611e26565b5b949350505050565b6000808273ffffffffffffffffffffffffffffffffffffffff163b119050919050565b600082511115611e395781518083602001fd5b806040517f08c379a0000000000000000000000000000000000000000000000000000000008152600401611e6d9190612914565b60405180910390fd5b60008115159050919050565b611e8b81611e76565b82525050565b6000602082019050611ea66000830184611e82565b92915050565b600073ffffffffffffffffffffffffffffffffffffffff82169050919050565b6000819050919050565b6000611ef1611eec611ee784611eac565b611ecc565b611eac565b9050919050565b6000611f0382611ed6565b9050919050565b6000611f1582611ef8565b9050919050565b611f2581611f0a565b82525050565b6000602082019050611f406000830184611f1c565b92915050565b6000819050919050565b611f5981611f46565b82525050565b6000602082019050611f746000830184611f50565b92915050565b6000611f8582611ef8565b9050919050565b611f9581611f7a565b82525050565b6000602082019050611fb06000830184611f8c565b92915050565b6000611fc182611eac565b9050919050565b611fd181611fb6565b82525050565b6000602082019050611fec6000830184611fc8565b92915050565b6000819050919050565b61200581611ff2565b82525050565b60006020820190506120206000830184611ffc565b92915050565b600082825260208201905092915050565b7f6d63000000000000000000000000000000000000000000000000000000000000600082015250565b600061206d600283612026565b915061207882612037565b602082019050919050565b6000602082019050818103600083015261209c81612060565b9050919050565b7f4e487b7100000000000000000000000000000000000000000000000000000000600052601160045260246000fd5b60006120dd82611f46565b91506120e883611f46565b9250828210156120fb576120fa6120a3565b5b828203905092915050565b600061211182611f46565b915061211c83611f46565b9250817fffffffffffffffffffffffffffffffffffffffffffffffffffffffffffffffff0483118215151615612155576121546120a3565b5b828202905092915050565b7f4e487b7100000000000000000000000000000000000000000000000000000000600052601260045260246000fd5b600061219a82611f46565b91506121a583611f46565b9250826121b5576121b4612160565b5b828204905092915050565b60006121cb82611f46565b91506121d683611f46565b9250827fffffffffffffffffffffffffffffffffffffffffffffffffffffffffffffffff0382111561220b5761220a6120a3565b5b828201905092915050565b7f7465000000000000000000000000000000000000000000000000000000000000600082015250565b600061224c600283612026565b915061225782612216565b602082019050919050565b6000602082019050818103600083015261227b8161223f565b9050919050565b600080fd5b600069ffffffffffffffffffff82169050919050565b6122a681612287565b81146122b157600080fd5b50565b6000815190506122c38161229d565b92915050565b6122d281611ff2565b81146122dd57600080fd5b50565b6000815190506122ef816122c9565b92915050565b6122fe81611f46565b811461230957600080fd5b50565b60008151905061231b816122f5565b92915050565b600080600080600060a0868803121561233d5761233c612282565b5b600061234b888289016122b4565b955050602061235c888289016122e0565b945050604061236d8882890161230c565b935050606061237e8882890161230c565b925050608061238f888289016122b4565b9150509295509295909350565b7f7766000000000000000000000000000000000000000000000000000000000000600082015250565b60006123d2600283612026565b91506123dd8261239c565b602082019050919050565b60006020820190508181036000830152612401816123c5565b9050919050565b60006020828403121561241e5761241d612282565b5b600061242c8482850161230c565b91505092915050565b7f796e000000000000000000000000000000000000000000000000000000000000600082015250565b600061246b600283612026565b915061247682612435565b602082019050919050565b6000602082019050818103600083015261249a8161245e565b9050919050565b7f7064000000000000000000000000000000000000000000000000000000000000600082015250565b60006124d7600283612026565b91506124e2826124a1565b602082019050919050565b60006020820190508181036000830152612506816124ca565b9050919050565b7f726e660000000000000000000000000000000000000000000000000000000000600082015250565b6000612543600383612026565b915061254e8261250d565b602082019050919050565b6000602082019050818103600083015261257281612536565b9050919050565b7f636e000000000000000000000000000000000000000000000000000000000000600082015250565b60006125af600283612026565b91506125ba82612579565b602082019050919050565b600060208201905081810360008301526125de816125a2565b9050919050565b60006040820190506125fa6000830185611fc8565b6126076020830184611f50565b9392505050565b60006060820190506126236000830186611fc8565b6126306020830185611fc8565b61263d6040830184611f50565b949350505050565b61264e81611e76565b811461265957600080fd5b50565b60008151905061266b81612645565b92915050565b60006020828403121561268757612686612282565b5b60006126958482850161265c565b91505092915050565b7f5361666545524332303a204552433230206f7065726174696f6e20646964206e60008201527f6f74207375636365656400000000000000000000000000000000000000000000602082015250565b60006126fa602a83612026565b91506127058261269e565b604082019050919050565b60006020820190508181036000830152612729816126ed565b9050919050565b7f416464726573733a20696e73756666696369656e742062616c616e636520666f60008201527f722063616c6c0000000000000000000000000000000000000000000000000000602082015250565b600061278c602683612026565b915061279782612730565b604082019050919050565b600060208201905081810360008301526127bb8161277f565b9050919050565b600081519050919050565b600081905092915050565b60005b838110156127f65780820151818401526020810190506127db565b83811115612805576000848401525b50505050565b6000612816826127c2565b61282081856127cd565b93506128308185602086016127d8565b80840191505092915050565b6000612848828461280b565b915081905092915050565b7f416464726573733a2063616c6c20746f206e6f6e2d636f6e7472616374000000600082015250565b6000612889601d83612026565b915061289482612853565b602082019050919050565b600060208201905081810360008301526128b88161287c565b9050919050565b600081519050919050565b6000601f19601f8301169050919050565b60006128e6826128bf565b6128f08185612026565b93506129008185602086016127d8565b612909816128ca565b840191505092915050565b6000602082019050818103600083015261292e81846128db565b90509291505056fea264697066735822122091d349c15306ede06825eacc0ca3a846f626719b32d7c08ede4f68049ba81ea264736f6c6343000809003360806040523480156200001157600080fd5b506040516200200e3803806200200e8339818101604052810190620000379190620003b0565b818181600390805190602001906200005192919062000163565b5080600490805190602001906200006a92919062000163565b5050506200008d620000816200009560201b60201c565b6200009d60201b60201c565b50506200049a565b600033905090565b6000600560009054906101000a900473ffffffffffffffffffffffffffffffffffffffff16905081600560006101000a81548173ffffffffffffffffffffffffffffffffffffffff021916908373ffffffffffffffffffffffffffffffffffffffff1602179055508173ffffffffffffffffffffffffffffffffffffffff168173ffffffffffffffffffffffffffffffffffffffff167f8be0079c531659141344cd1fd0a4f28419497f9722a3daafe3b4186f6b6457e060405160405180910390a35050565b828054620001719062000464565b90600052602060002090601f016020900481019282620001955760008555620001e1565b82601f10620001b057805160ff1916838001178555620001e1565b82800160010185558215620001e1579182015b82811115620001e0578251825591602001919060010190620001c3565b5b509050620001f09190620001f4565b5090565b5b808211156200020f576000816000905550600101620001f5565b5090565b6000604051905090565b600080fd5b600080fd5b600080fd5b600080fd5b6000601f19601f8301169050919050565b7f4e487b7100000000000000000000000000000000000000000000000000000000600052604160045260246000fd5b6200027c8262000231565b810181811067ffffffffffffffff821117156200029e576200029d62000242565b5b80604052505050565b6000620002b362000213565b9050620002c1828262000271565b919050565b600067ffffffffffffffff821115620002e457620002e362000242565b5b620002ef8262000231565b9050602081019050919050565b60005b838110156200031c578082015181840152602081019050620002ff565b838111156200032c576000848401525b50505050565b6000620003496200034384620002c6565b620002a7565b9050828152602081018484840111156200036857620003676200022c565b5b62000375848285620002fc565b509392505050565b600082601f83011262000395576200039462000227565b5b8151620003a784826020860162000332565b91505092915050565b60008060408385031215620003ca57620003c96200021d565b5b600083015167ffffffffffffffff811115620003eb57620003ea62000222565b5b620003f9858286016200037d565b925050602083015167ffffffffffffffff8111156200041d576200041c62000222565b5b6200042b858286016200037d565b9150509250929050565b7f4e487b7100000000000000000000000000000000000000000000000000000000600052602260045260246000fd5b600060028204905060018216806200047d57607f821691505b6020821081141562000494576200049362000435565b5b50919050565b611b6480620004aa6000396000f3fe608060405234801561001057600080fd5b50600436106101005760003560e01c8063715018a611610097578063a457c2d711610066578063a457c2d71461029d578063a9059cbb146102cd578063dd62ed3e146102fd578063f2fde38b1461032d57610100565b8063715018a61461023b5780638da5cb5b1461024557806395d89b4114610263578063a0712d681461028157610100565b8063313ce567116100d3578063313ce567146101a157806339509351146101bf57806342966c68146101ef57806370a082311461020b57610100565b806306fdde0314610105578063095ea7b31461012357806318160ddd1461015357806323b872dd14610171575b600080fd5b61010d610349565b60405161011a9190611139565b60405180910390f35b61013d600480360381019061013891906111f4565b6103db565b60405161014a919061124f565b60405180910390f35b61015b6103fe565b6040516101689190611279565b60405180910390f35b61018b60048036038101906101869190611294565b610408565b604051610198919061124f565b60405180910390f35b6101a9610437565b6040516101b69190611303565b60405180910390f35b6101d960048036038101906101d491906111f4565b610440565b6040516101e6919061124f565b60405180910390f35b6102096004803603810190610204919061131e565b610477565b005b6102256004803603810190610220919061134b565b610484565b6040516102329190611279565b60405180910390f35b6102436104cc565b005b61024d6104e0565b60405161025a9190611387565b60405180910390f35b61026b61050a565b6040516102789190611139565b60405180910390f35b61029b6004803603810190610296919061131e565b61059c565b005b6102b760048036038101906102b291906111f4565b6105b1565b6040516102c4919061124f565b60405180910390f35b6102e760048036038101906102e291906111f4565b610628565b6040516102f4919061124f565b60405180910390f35b610317600480360381019061031291906113a2565b61064b565b6040516103249190611279565b60405180910390f35b6103476004803603810190610342919061134b565b6106d2565b005b60606003805461035890611411565b80601f016020809104026020016040519081016040528092919081815260200182805461038490611411565b80156103d15780601f106103a6576101008083540402835291602001916103d1565b820191906000526020600020905b8154815290600101906020018083116103b457829003601f168201915b5050505050905090565b6000806103e6610756565b90506103f381858561075e565b600191505092915050565b6000600254905090565b600080610413610756565b9050610420858285610929565b61042b8585856109b5565b60019150509392505050565b60006012905090565b60008061044b610756565b905061046c81858561045d858961064b565b6104679190611472565b61075e565b600191505092915050565b6104813382610c2d565b50565b60008060008373ffffffffffffffffffffffffffffffffffffffff1673ffffffffffffffffffffffffffffffffffffffff168152602001908152602001600020549050919050565b6104d4610dfb565b6104de6000610e79565b565b6000600560009054906101000a900473ffffffffffffffffffffffffffffffffffffffff16905090565b60606004805461051990611411565b80601f016020809104026020016040519081016040528092919081815260200182805461054590611411565b80156105925780601f1061056757610100808354040283529160200191610592565b820191906000526020600020905b81548152906001019060200180831161057557829003601f168201915b5050505050905090565b6105a4610dfb565b6105ae3382610f3f565b50565b6000806105bc610756565b905060006105ca828661064b565b90508381101561060f576040517f08c379a00000000000000000000000000000000000000000000000000000000081526004016106069061153a565b60405180910390fd5b61061c828686840361075e565b60019250505092915050565b600080610633610756565b90506106408185856109b5565b600191505092915050565b6000600160008473ffffffffffffffffffffffffffffffffffffffff1673ffffffffffffffffffffffffffffffffffffffff16815260200190815260200160002060008373ffffffffffffffffffffffffffffffffffffffff1673ffffffffffffffffffffffffffffffffffffffff16815260200190815260200160002054905092915050565b6106da610dfb565b600073ffffffffffffffffffffffffffffffffffffffff168173ffffffffffffffffffffffffffffffffffffffff16141561074a576040517f08c379a0000000000000000000000000000000000000000000000000000000008152600401610741906115cc565b60405180910390fd5b61075381610e79565b50565b600033905090565b600073ffffffffffffffffffffffffffffffffffffffff168373ffffffffffffffffffffffffffffffffffffffff1614156107ce576040517f08c379a00000000000000000000000000000000000000000000000000000000081526004016107c59061165e565b60405180910390fd5b600073ffffffffffffffffffffffffffffffffffffffff168273ffffffffffffffffffffffffffffffffffffffff16141561083e576040517f08c379a0000000000000000000000000000000000000000000000000000000008152600401610835906116f0565b60405180910390fd5b80600160008573ffffffffffffffffffffffffffffffffffffffff1673ffffffffffffffffffffffffffffffffffffffff16815260200190815260200160002060008473ffffffffffffffffffffffffffffffffffffffff1673ffffffffffffffffffffffffffffffffffffffff168152602001908152602001600020819055508173ffffffffffffffffffffffffffffffffffffffff168373ffffffffffffffffffffffffffffffffffffffff167f8c5be1e5ebec7d5bd14f71427d1e84f3dd0314c0f7b2291e5b200ac8c7c3b9258360405161091c9190611279565b60405180910390a3505050565b6000610935848461064b565b90507fffffffffffffffffffffffffffffffffffffffffffffffffffffffffffffffff81146109af57818110156109a1576040517f08c379a00000000000000000000000000000000000000000000000000000000081526004016109989061175c565b60405180910390fd5b6109ae848484840361075e565b5b50505050565b600073ffffffffffffffffffffffffffffffffffffffff168373ffffffffffffffffffffffffffffffffffffffff161415610a25576040517f08c379a0000000000000000000000000000000000000000000000000000000008152600401610a1c906117ee565b60405180910390fd5b600073ffffffffffffffffffffffffffffffffffffffff168273ffffffffffffffffffffffffffffffffffffffff161415610a95576040517f08c379a0000000000000000000000000000000000000000000000000000000008152600401610a8c90611880565b60405180910390fd5b610aa0838383611096565b60008060008573ffffffffffffffffffffffffffffffffffffffff1673ffffffffffffffffffffffffffffffffffffffff16815260200190815260200160002054905081811015610b26576040517f08c379a0000000000000000000000000000000000000000000000000000000008152600401610b1d90611912565b60405180910390fd5b8181036000808673ffffffffffffffffffffffffffffffffffffffff1673ffffffffffffffffffffffffffffffffffffffff16815260200190815260200160002081905550816000808573ffffffffffffffffffffffffffffffffffffffff1673ffffffffffffffffffffffffffffffffffffffff168152602001908152602001600020600082825401925050819055508273ffffffffffffffffffffffffffffffffffffffff168473ffffffffffffffffffffffffffffffffffffffff167fddf252ad1be2c89b69c2b068fc378daa952ba7f163c4a11628f55a4df523b3ef84604051610c149190611279565b60405180910390a3610c2784848461109b565b50505050565b600073ffffffffffffffffffffffffffffffffffffffff168273ffffffffffffffffffffffffffffffffffffffff161415610c9d576040517f08c379a0000000000000000000000000000000000000000000000000000000008152600401610c94906119a4565b60405180910390fd5b610ca982600083611096565b60008060008473ffffffffffffffffffffffffffffffffffffffff1673ffffffffffffffffffffffffffffffffffffffff16815260200190815260200160002054905081811015610d2f576040517f08c379a0000000000000000000000000000000000000000000000000000000008152600401610d2690611a36565b60405180910390fd5b8181036000808573ffffffffffffffffffffffffffffffffffffffff1673ffffffffffffffffffffffffffffffffffffffff1681526020019081526020016000208190555081600260008282540392505081905550600073ffffffffffffffffffffffffffffffffffffffff168373ffffffffffffffffffffffffffffffffffffffff167fddf252ad1be2c89b69c2b068fc378daa952ba7f163c4a11628f55a4df523b3ef84604051610de29190611279565b60405180910390a3610df68360008461109b565b505050565b610e03610756565b73ffffffffffffffffffffffffffffffffffffffff16610e216104e0565b73ffffffffffffffffffffffffffffffffffffffff1614610e77576040517f08c379a0000000000000000000000000000000000000000000000000000000008152600401610e6e90611aa2565b60405180910390fd5b565b6000600560009054906101000a900473ffffffffffffffffffffffffffffffffffffffff16905081600560006101000a81548173ffffffffffffffffffffffffffffffffffffffff021916908373ffffffffffffffffffffffffffffffffffffffff1602179055508173ffffffffffffffffffffffffffffffffffffffff168173ffffffffffffffffffffffffffffffffffffffff167f8be0079c531659141344cd1fd0a4f28419497f9722a3daafe3b4186f6b6457e060405160405180910390a35050565b600073ffffffffffffffffffffffffffffffffffffffff168273ffffffffffffffffffffffffffffffffffffffff161415610faf576040517f08c379a0000000000000000000000000000000000000000000000000000000008152600401610fa690611b0e565b60405180910390fd5b610fbb60008383611096565b8060026000828254610fcd9190611472565b92505081905550806000808473ffffffffffffffffffffffffffffffffffffffff1673ffffffffffffffffffffffffffffffffffffffff168152602001908152602001600020600082825401925050819055508173ffffffffffffffffffffffffffffffffffffffff16600073ffffffffffffffffffffffffffffffffffffffff167fddf252ad1be2c89b69c2b068fc378daa952ba7f163c4a11628f55a4df523b3ef8360405161107e9190611279565b60405180910390a36110926000838361109b565b5050565b505050565b505050565b600081519050919050565b600082825260208201905092915050565b60005b838110156110da5780820151818401526020810190506110bf565b838111156110e9576000848401525b50505050565b6000601f19601f8301169050919050565b600061110b826110a0565b61111581856110ab565b93506111258185602086016110bc565b61112e816110ef565b840191505092915050565b600060208201905081810360008301526111538184611100565b905092915050565b600080fd5b600073ffffffffffffffffffffffffffffffffffffffff82169050919050565b600061118b82611160565b9050919050565b61119b81611180565b81146111a657600080fd5b50565b6000813590506111b881611192565b92915050565b6000819050919050565b6111d1816111be565b81146111dc57600080fd5b50565b6000813590506111ee816111c8565b92915050565b6000806040838503121561120b5761120a61115b565b5b6000611219858286016111a9565b925050602061122a858286016111df565b9150509250929050565b60008115159050919050565b61124981611234565b82525050565b60006020820190506112646000830184611240565b92915050565b611273816111be565b82525050565b600060208201905061128e600083018461126a565b92915050565b6000806000606084860312156112ad576112ac61115b565b5b60006112bb868287016111a9565b93505060206112cc868287016111a9565b92505060406112dd868287016111df565b9150509250925092565b600060ff82169050919050565b6112fd816112e7565b82525050565b600060208201905061131860008301846112f4565b92915050565b6000602082840312156113345761133361115b565b5b6000611342848285016111df565b91505092915050565b6000602082840312156113615761136061115b565b5b600061136f848285016111a9565b91505092915050565b61138181611180565b82525050565b600060208201905061139c6000830184611378565b92915050565b600080604083850312156113b9576113b861115b565b5b60006113c7858286016111a9565b92505060206113d8858286016111a9565b9150509250929050565b7f4e487b7100000000000000000000000000000000000000000000000000000000600052602260045260246000fd5b6000600282049050600182168061142957607f821691505b6020821081141561143d5761143c6113e2565b5b50919050565b7f4e487b7100000000000000000000000000000000000000000000000000000000600052601160045260246000fd5b600061147d826111be565b9150611488836111be565b9250827fffffffffffffffffffffffffffffffffffffffffffffffffffffffffffffffff038211156114bd576114bc611443565b5b828201905092915050565b7f45524332303a2064656372656173656420616c6c6f77616e63652062656c6f7760008201527f207a65726f000000000000000000000000000000000000000000000000000000602082015250565b60006115246025836110ab565b915061152f826114c8565b604082019050919050565b6000602082019050818103600083015261155381611517565b9050919050565b7f4f776e61626c653a206e6577206f776e657220697320746865207a65726f206160008201527f6464726573730000000000000000000000000000000000000000000000000000602082015250565b60006115b66026836110ab565b91506115c18261155a565b604082019050919050565b600060208201905081810360008301526115e5816115a9565b9050919050565b7f45524332303a20617070726f76652066726f6d20746865207a65726f2061646460008201527f7265737300000000000000000000000000000000000000000000000000000000602082015250565b60006116486024836110ab565b9150611653826115ec565b604082019050919050565b600060208201905081810360008301526116778161163b565b9050919050565b7f45524332303a20617070726f766520746f20746865207a65726f20616464726560008201527f7373000000000000000000000000000000000000000000000000000000000000602082015250565b60006116da6022836110ab565b91506116e58261167e565b604082019050919050565b60006020820190508181036000830152611709816116cd565b9050919050565b7f45524332303a20696e73756666696369656e7420616c6c6f77616e6365000000600082015250565b6000611746601d836110ab565b915061175182611710565b602082019050919050565b6000602082019050818103600083015261177581611739565b9050919050565b7f45524332303a207472616e736665722066726f6d20746865207a65726f20616460008201527f6472657373000000000000000000000000000000000000000000000000000000602082015250565b60006117d86025836110ab565b91506117e38261177c565b604082019050919050565b60006020820190508181036000830152611807816117cb565b9050919050565b7f45524332303a207472616e7366657220746f20746865207a65726f206164647260008201527f6573730000000000000000000000000000000000000000000000000000000000602082015250565b600061186a6023836110ab565b91506118758261180e565b604082019050919050565b600060208201905081810360008301526118998161185d565b9050919050565b7f45524332303a207472616e7366657220616d6f756e742065786365656473206260008201527f616c616e63650000000000000000000000000000000000000000000000000000602082015250565b60006118fc6026836110ab565b9150611907826118a0565b604082019050919050565b6000602082019050818103600083015261192b816118ef565b9050919050565b7f45524332303a206275726e2066726f6d20746865207a65726f2061646472657360008201527f7300000000000000000000000000000000000000000000000000000000000000602082015250565b600061198e6021836110ab565b915061199982611932565b604082019050919050565b600060208201905081810360008301526119bd81611981565b9050919050565b7f45524332303a206275726e20616d6f756e7420657863656564732062616c616e60008201527f6365000000000000000000000000000000000000000000000000000000000000602082015250565b6000611a206022836110ab565b9150611a2b826119c4565b604082019050919050565b60006020820190508181036000830152611a4f81611a13565b9050919050565b7f4f776e61626c653a2063616c6c6572206973206e6f7420746865206f776e6572600082015250565b6000611a8c6020836110ab565b9150611a9782611a56565b602082019050919050565b60006020820190508181036000830152611abb81611a7f565b9050919050565b7f45524332303a206d696e7420746f20746865207a65726f206164647265737300600082015250565b6000611af8601f836110ab565b9150611b0382611ac2565b602082019050919050565b60006020820190508181036000830152611b2781611aeb565b905091905056fea26469706673582212202edd57ca92cec90ec5bf2156d59db45d129a6c3b6a6ee59f0009e91ebcbb714364736f6c63430008090033a2646970667358221220235c403037acce69f5bf07dcf2761b660b21cc06eb1571ef78488321e188315264736f6c63430008090033",
  "linkReferences": {},
  "deployedLinkReferences": {}
}