{
  "_format": "hh-sol-artifact-1",
  "contractName": "GenPool",
  "sourceName": "contracts/GenPool.sol",
  "abi": [
    {
      "inputs": [
        {
          "internalType": "address",
          "name": "_oraclAddr",
          "type": "address"
        },
        {
          "internalType": "int256",
          "name": "_settlementPrice",
          "type": "int256"
        },
        {
          "internalType": "uint256",
          "name": "_settlementDate",
          "type": "uint256"
        }
      ],
      "stateMutability": "nonpayable",
      "type": "constructor"
    },
    {
      "inputs": [],
      "name": "depositToNEG",
      "outputs": [],
      "stateMutability": "payable",
      "type": "function"
    },
    {
      "inputs": [],
      "name": "depositToPOS",
      "outputs": [],
      "stateMutability": "payable",
      "type": "function"
    },
    {
      "inputs": [],
      "name": "getCondition",
      "outputs": [
        {
          "internalType": "bool",
          "name": "",
          "type": "bool"
        }
      ],
      "stateMutability": "view",
      "type": "function"
    },
    {
      "inputs": [],
      "name": "getLatestPrice",
      "outputs": [
        {
          "internalType": "int256",
          "name": "",
          "type": "int256"
        }
      ],
      "stateMutability": "view",
      "type": "function"
    },
    {
      "inputs": [],
      "name": "getSettled",
      "outputs": [
        {
          "internalType": "bool",
          "name": "",
          "type": "bool"
        }
      ],
      "stateMutability": "view",
      "type": "function"
    },
    {
      "inputs": [],
      "name": "getSettlementDate",
      "outputs": [
        {
          "internalType": "uint256",
          "name": "",
          "type": "uint256"
        }
      ],
      "stateMutability": "view",
      "type": "function"
    },
    {
      "inputs": [],
      "name": "getSettlementPrice",
      "outputs": [
        {
          "internalType": "int256",
          "name": "",
          "type": "int256"
        }
      ],
      "stateMutability": "view",
      "type": "function"
    },
    {
      "inputs": [],
      "name": "negativeSide",
      "outputs": [
        {
          "internalType": "contract NEG",
          "name": "",
          "type": "address"
        }
      ],
      "stateMutability": "view",
      "type": "function"
    },
    {
      "inputs": [],
      "name": "oracle",
      "outputs": [
        {
          "internalType": "contract useChainLink",
          "name": "",
          "type": "address"
        }
      ],
      "stateMutability": "view",
      "type": "function"
    },
    {
      "inputs": [],
      "name": "pastSettlementDate",
      "outputs": [
        {
          "internalType": "bool",
          "name": "",
          "type": "bool"
        }
      ],
      "stateMutability": "view",
      "type": "function"
    },
    {
      "inputs": [],
      "name": "positiveSide",
      "outputs": [
        {
          "internalType": "contract POS",
          "name": "",
          "type": "address"
        }
      ],
      "stateMutability": "view",
      "type": "function"
    },
    {
      "inputs": [],
      "name": "settle",
      "outputs": [],
      "stateMutability": "nonpayable",
      "type": "function"
    },
    {
      "inputs": [],
      "name": "withdrawWithNEG",
      "outputs": [],
      "stateMutability": "nonpayable",
      "type": "function"
    },
    {
      "inputs": [],
      "name": "withdrawWithPOS",
      "outputs": [],
      "stateMutability": "nonpayable",
      "type": "function"
    }
  ],
  "bytecode": "0x60806040523480156200001157600080fd5b50604051620063c0380380620063c08339818101604052810190620000379190620002f4565b80600081905550816001819055506040516200005390620001ea565b6200005e90620003b1565b604051809103906000f0801580156200007b573d6000803e3d6000fd5b506002806101000a81548173ffffffffffffffffffffffffffffffffffffffff021916908373ffffffffffffffffffffffffffffffffffffffff160217905550604051620000c990620001f8565b620000d49062000423565b604051809103906000f080158015620000f1573d6000803e3d6000fd5b50600360006101000a81548173ffffffffffffffffffffffffffffffffffffffff021916908373ffffffffffffffffffffffffffffffffffffffff16021790555082604051620001419062000206565b6200014d919062000456565b604051809103906000f0801580156200016a573d6000803e3d6000fd5b50600460006101000a81548173ffffffffffffffffffffffffffffffffffffffff021916908373ffffffffffffffffffffffffffffffffffffffff1602179055506000600260006101000a81548160ff0219169083151502179055506000600260016101000a81548160ff02191690831515021790555050505062000473565b61200e8062001e4583390190565b61200e8062003e5383390190565b61055f8062005e6183390190565b600080fd5b600073ffffffffffffffffffffffffffffffffffffffff82169050919050565b6000620002468262000219565b9050919050565b620002588162000239565b81146200026457600080fd5b50565b60008151905062000278816200024d565b92915050565b6000819050919050565b62000293816200027e565b81146200029f57600080fd5b50565b600081519050620002b38162000288565b92915050565b6000819050919050565b620002ce81620002b9565b8114620002da57600080fd5b50565b600081519050620002ee81620002c3565b92915050565b60008060006060848603121562000310576200030f62000214565b5b6000620003208682870162000267565b93505060206200033386828701620002a2565b92505060406200034686828701620002dd565b9150509250925092565b600082825260208201905092915050565b7f4f56455200000000000000000000000000000000000000000000000000000000600082015250565b60006200039960048362000350565b9150620003a68262000361565b602082019050919050565b60006020820190508181036000830152620003cc816200038a565b9050919050565b7f554e444552000000000000000000000000000000000000000000000000000000600082015250565b60006200040b60058362000350565b91506200041882620003d3565b602082019050919050565b600060208201905081810360008301526200043e81620003fc565b9050919050565b620004508162000239565b82525050565b60006020820190506200046d600083018462000445565b92915050565b6119c280620004836000396000f3fe6080604052600436106100dd5760003560e01c80637dc0d1d01161007f5780638e15f473116100595780638e15f47314610226578063e1a431d214610251578063ec2c0e631461027c578063fb04e00b146102a7576100dd565b80637dc0d1d0146101a557806389394211146101d05780638cb73feb146101fb576100dd565b80634c3e73cf116100bb5780634c3e73cf1461012e57806352bc04a514610138578063680baeb8146101635780636ac715e41461018e576100dd565b806305efc04a146100e2578063117d4942146100ec57806311da60b414610117575b600080fd5b6100ea6102be565b005b3480156100f857600080fd5b50610101610454565b60405161010e919061132d565b60405180910390f35b34801561012357600080fd5b5061012c610478565b005b610136610619565b005b34801561014457600080fd5b5061014d6107ab565b60405161015a9190611363565b60405180910390f35b34801561016f57600080fd5b506101786107c2565b6040516101859190611363565b60405180910390f35b34801561019a57600080fd5b506101a36107d9565b005b3480156101b157600080fd5b506101ba610cc0565b6040516101c7919061139f565b60405180910390f35b3480156101dc57600080fd5b506101e5610ce6565b6040516101f291906113db565b60405180910390f35b34801561020757600080fd5b50610210610d0c565b60405161021d919061140f565b60405180910390f35b34801561023257600080fd5b5061023b610d15565b6040516102489190611443565b60405180910390f35b34801561025d57600080fd5b50610266610dbc565b6040516102739190611363565b60405180910390f35b34801561028857600080fd5b50610291610dc7565b60405161029e9190611443565b60405180910390f35b3480156102b357600080fd5b506102bc610dd1565b005b60005442106102cc57600080fd5b66038d7ea4c680003411610315576040517f08c379a000000000000000000000000000000000000000000000000000000000815260040161030c906114bb565b60405180910390fd5b600360009054906101000a900473ffffffffffffffffffffffffffffffffffffffff1673ffffffffffffffffffffffffffffffffffffffff1663a0712d68346040518263ffffffff1660e01b8152600401610370919061140f565b600060405180830381600087803b15801561038a57600080fd5b505af115801561039e573d6000803e3d6000fd5b50505050600360009054906101000a900473ffffffffffffffffffffffffffffffffffffffff1673ffffffffffffffffffffffffffffffffffffffff1663a9059cbb33346040518363ffffffff1660e01b81526004016103ff9291906114fc565b602060405180830381600087803b15801561041957600080fd5b505af115801561042d573d6000803e3d6000fd5b505050506040513d601f19601f820116820180604052508101906104519190611556565b50565b60028054906101000a900473ffffffffffffffffffffffffffffffffffffffff1681565b60005442116104bc576040517f08c379a00000000000000000000000000000000000000000000000000000000081526004016104b3906115cf565b60405180910390fd5b60001515600260019054906101000a900460ff16151514610512576040517f08c379a00000000000000000000000000000000000000000000000000000000081526004016105099061163b565b60405180910390fd5b6000600460009054906101000a900473ffffffffffffffffffffffffffffffffffffffff1673ffffffffffffffffffffffffffffffffffffffff16638e15f4736040518163ffffffff1660e01b815260040160206040518083038186803b15801561057c57600080fd5b505afa158015610590573d6000803e3d6000fd5b505050506040513d601f19601f820116820180604052508101906105b49190611687565b905060015481126105df576001600260006101000a81548160ff0219169083151502179055506105fb565b6000600260006101000a81548160ff0219169083151502179055505b6001600260016101000a81548160ff02191690831515021790555050565b600054421061062757600080fd5b66038d7ea4c680003411610670576040517f08c379a0000000000000000000000000000000000000000000000000000000008152600401610667906114bb565b60405180910390fd5b60028054906101000a900473ffffffffffffffffffffffffffffffffffffffff1673ffffffffffffffffffffffffffffffffffffffff1663a0712d68346040518263ffffffff1660e01b81526004016106c9919061140f565b600060405180830381600087803b1580156106e357600080fd5b505af11580156106f7573d6000803e3d6000fd5b5050505060028054906101000a900473ffffffffffffffffffffffffffffffffffffffff1673ffffffffffffffffffffffffffffffffffffffff1663a9059cbb33346040518363ffffffff1660e01b81526004016107569291906114fc565b602060405180830381600087803b15801561077057600080fd5b505af1158015610784573d6000803e3d6000fd5b505050506040513d601f19601f820116820180604052508101906107a89190611556565b50565b6000600260019054906101000a900460ff16905090565b6000600260009054906101000a900460ff16905090565b600054421161081d576040517f08c379a0000000000000000000000000000000000000000000000000000000008152600401610814906115cf565b60405180910390fd5b60011515600260019054906101000a900460ff16151514610873576040517f08c379a000000000000000000000000000000000000000000000000000000000815260040161086a90611700565b60405180910390fd5b60001515600260009054906101000a900460ff161515146108c9576040517f08c379a00000000000000000000000000000000000000000000000000000000081526004016108c09061176c565b60405180910390fd5b6000600360009054906101000a900473ffffffffffffffffffffffffffffffffffffffff1673ffffffffffffffffffffffffffffffffffffffff166370a08231336040518263ffffffff1660e01b8152600401610926919061178c565b60206040518083038186803b15801561093e57600080fd5b505afa158015610952573d6000803e3d6000fd5b505050506040513d601f19601f8201168201806040525081019061097691906117d3565b116109b6576040517f08c379a00000000000000000000000000000000000000000000000000000000081526004016109ad9061184c565b60405180910390fd5b600047600360009054906101000a900473ffffffffffffffffffffffffffffffffffffffff1673ffffffffffffffffffffffffffffffffffffffff166318160ddd6040518163ffffffff1660e01b815260040160206040518083038186803b158015610a2157600080fd5b505afa158015610a35573d6000803e3d6000fd5b505050506040513d601f19601f82011682018060405250810190610a5991906117d3565b600360009054906101000a900473ffffffffffffffffffffffffffffffffffffffff1673ffffffffffffffffffffffffffffffffffffffff166370a08231336040518263ffffffff1660e01b8152600401610ab4919061178c565b60206040518083038186803b158015610acc57600080fd5b505afa158015610ae0573d6000803e3d6000fd5b505050506040513d601f19601f82011682018060405250810190610b0491906117d3565b610b0e91906118ca565b610b1891906118fb565b9050600360009054906101000a900473ffffffffffffffffffffffffffffffffffffffff1673ffffffffffffffffffffffffffffffffffffffff166323b872dd3330600360009054906101000a900473ffffffffffffffffffffffffffffffffffffffff1673ffffffffffffffffffffffffffffffffffffffff166370a08231336040518263ffffffff1660e01b8152600401610bb5919061178c565b60206040518083038186803b158015610bcd57600080fd5b505afa158015610be1573d6000803e3d6000fd5b505050506040513d601f19601f82011682018060405250810190610c0591906117d3565b6040518463ffffffff1660e01b8152600401610c2393929190611955565b602060405180830381600087803b158015610c3d57600080fd5b505af1158015610c51573d6000803e3d6000fd5b505050506040513d601f19601f82011682018060405250810190610c759190611556565b503373ffffffffffffffffffffffffffffffffffffffff166108fc829081150290604051600060405180830381858888f19350505050158015610cbc573d6000803e3d6000fd5b5050565b600460009054906101000a900473ffffffffffffffffffffffffffffffffffffffff1681565b600360009054906101000a900473ffffffffffffffffffffffffffffffffffffffff1681565b60008054905090565b6000600460009054906101000a900473ffffffffffffffffffffffffffffffffffffffff1673ffffffffffffffffffffffffffffffffffffffff16638e15f4736040518163ffffffff1660e01b815260040160206040518083038186803b158015610d7f57600080fd5b505afa158015610d93573d6000803e3d6000fd5b505050506040513d601f19601f82011682018060405250810190610db79190611687565b905090565b600080544211905090565b6000600154905090565b6000544211610e15576040517f08c379a0000000000000000000000000000000000000000000000000000000008152600401610e0c906115cf565b60405180910390fd5b60011515600260019054906101000a900460ff16151514610e6b576040517f08c379a0000000000000000000000000000000000000000000000000000000008152600401610e6290611700565b60405180910390fd5b60011515600260009054906101000a900460ff16151514610ec1576040517f08c379a0000000000000000000000000000000000000000000000000000000008152600401610eb89061176c565b60405180910390fd5b600060028054906101000a900473ffffffffffffffffffffffffffffffffffffffff1673ffffffffffffffffffffffffffffffffffffffff166370a08231336040518263ffffffff1660e01b8152600401610f1c919061178c565b60206040518083038186803b158015610f3457600080fd5b505afa158015610f48573d6000803e3d6000fd5b505050506040513d601f19601f82011682018060405250810190610f6c91906117d3565b11610fac576040517f08c379a0000000000000000000000000000000000000000000000000000000008152600401610fa39061184c565b60405180910390fd5b60004760028054906101000a900473ffffffffffffffffffffffffffffffffffffffff1673ffffffffffffffffffffffffffffffffffffffff166318160ddd6040518163ffffffff1660e01b815260040160206040518083038186803b15801561101557600080fd5b505afa158015611029573d6000803e3d6000fd5b505050506040513d601f19601f8201168201806040525081019061104d91906117d3565b60028054906101000a900473ffffffffffffffffffffffffffffffffffffffff1673ffffffffffffffffffffffffffffffffffffffff166370a08231336040518263ffffffff1660e01b81526004016110a6919061178c565b60206040518083038186803b1580156110be57600080fd5b505afa1580156110d2573d6000803e3d6000fd5b505050506040513d601f19601f820116820180604052508101906110f691906117d3565b61110091906118ca565b61110a91906118fb565b905060028054906101000a900473ffffffffffffffffffffffffffffffffffffffff1673ffffffffffffffffffffffffffffffffffffffff166323b872dd333060028054906101000a900473ffffffffffffffffffffffffffffffffffffffff1673ffffffffffffffffffffffffffffffffffffffff166370a08231336040518263ffffffff1660e01b81526004016111a3919061178c565b60206040518083038186803b1580156111bb57600080fd5b505afa1580156111cf573d6000803e3d6000fd5b505050506040513d601f19601f820116820180604052508101906111f391906117d3565b6040518463ffffffff1660e01b815260040161121193929190611955565b602060405180830381600087803b15801561122b57600080fd5b505af115801561123f573d6000803e3d6000fd5b505050506040513d601f19601f820116820180604052508101906112639190611556565b503373ffffffffffffffffffffffffffffffffffffffff166108fc829081150290604051600060405180830381858888f193505050501580156112aa573d6000803e3d6000fd5b5050565b600073ffffffffffffffffffffffffffffffffffffffff82169050919050565b6000819050919050565b60006112f36112ee6112e9846112ae565b6112ce565b6112ae565b9050919050565b6000611305826112d8565b9050919050565b6000611317826112fa565b9050919050565b6113278161130c565b82525050565b6000602082019050611342600083018461131e565b92915050565b60008115159050919050565b61135d81611348565b82525050565b60006020820190506113786000830184611354565b92915050565b6000611389826112fa565b9050919050565b6113998161137e565b82525050565b60006020820190506113b46000830184611390565b92915050565b60006113c5826112fa565b9050919050565b6113d5816113ba565b82525050565b60006020820190506113f060008301846113cc565b92915050565b6000819050919050565b611409816113f6565b82525050565b60006020820190506114246000830184611400565b92915050565b6000819050919050565b61143d8161142a565b82525050565b60006020820190506114586000830184611434565b92915050565b600082825260208201905092915050565b7f6d6f7265206361706974616c0000000000000000000000000000000000000000600082015250565b60006114a5600c8361145e565b91506114b08261146f565b602082019050919050565b600060208201905081810360008301526114d481611498565b9050919050565b60006114e6826112ae565b9050919050565b6114f6816114db565b82525050565b600060408201905061151160008301856114ed565b61151e6020830184611400565b9392505050565b600080fd5b61153381611348565b811461153e57600080fd5b50565b6000815190506115508161152a565b92915050565b60006020828403121561156c5761156b611525565b5b600061157a84828501611541565b91505092915050565b7f746f6f206561726c790000000000000000000000000000000000000000000000600082015250565b60006115b960098361145e565b91506115c482611583565b602082019050919050565b600060208201905081810360008301526115e8816115ac565b9050919050565b7f616c726561647920736574746c65640000000000000000000000000000000000600082015250565b6000611625600f8361145e565b9150611630826115ef565b602082019050919050565b6000602082019050818103600083015261165481611618565b9050919050565b6116648161142a565b811461166f57600080fd5b50565b6000815190506116818161165b565b92915050565b60006020828403121561169d5761169c611525565b5b60006116ab84828501611672565b91505092915050565b7f6e6f7420736574746c6564000000000000000000000000000000000000000000600082015250565b60006116ea600b8361145e565b91506116f5826116b4565b602082019050919050565b60006020820190508181036000830152611719816116dd565b9050919050565b7f636f6e646974696f6e206e6f7420736174697366696564000000000000000000600082015250565b600061175660178361145e565b915061176182611720565b602082019050919050565b6000602082019050818103600083015261178581611749565b9050919050565b60006020820190506117a160008301846114ed565b92915050565b6117b0816113f6565b81146117bb57600080fd5b50565b6000815190506117cd816117a7565b92915050565b6000602082840312156117e9576117e8611525565b5b60006117f7848285016117be565b91505092915050565b7f796f752068617665206e6f7468696e6700000000000000000000000000000000600082015250565b600061183660108361145e565b915061184182611800565b602082019050919050565b6000602082019050818103600083015261186581611829565b9050919050565b7f4e487b7100000000000000000000000000000000000000000000000000000000600052601260045260246000fd5b7f4e487b7100000000000000000000000000000000000000000000000000000000600052601160045260246000fd5b60006118d5826113f6565b91506118e0836113f6565b9250826118f0576118ef61186c565b5b828204905092915050565b6000611906826113f6565b9150611911836113f6565b9250817fffffffffffffffffffffffffffffffffffffffffffffffffffffffffffffffff048311821515161561194a5761194961189b565b5b828202905092915050565b600060608201905061196a60008301866114ed565b61197760208301856114ed565b6119846040830184611400565b94935050505056fea264697066735822122016b199e2fa8fc4f479c396ef347a4c7ad5502ede00d90f0b203d6f8726a6b9fe64736f6c6343000809003360806040523480156200001157600080fd5b506040516200200e3803806200200e8339818101604052810190620000379190620003e4565b806040518060400160405280600381526020017f504f53000000000000000000000000000000000000000000000000000000000081525081600390805190602001906200008692919062000197565b5080600490805190602001906200009f92919062000197565b505050620000c2620000b6620000c960201b60201c565b620000d160201b60201c565b506200049a565b600033905090565b6000600560009054906101000a900473ffffffffffffffffffffffffffffffffffffffff16905081600560006101000a81548173ffffffffffffffffffffffffffffffffffffffff021916908373ffffffffffffffffffffffffffffffffffffffff1602179055508173ffffffffffffffffffffffffffffffffffffffff168173ffffffffffffffffffffffffffffffffffffffff167f8be0079c531659141344cd1fd0a4f28419497f9722a3daafe3b4186f6b6457e060405160405180910390a35050565b828054620001a59062000464565b90600052602060002090601f016020900481019282620001c9576000855562000215565b82601f10620001e457805160ff191683800117855562000215565b8280016001018555821562000215579182015b8281111562000214578251825591602001919060010190620001f7565b5b50905062000224919062000228565b5090565b5b808211156200024357600081600090555060010162000229565b5090565b6000604051905090565b600080fd5b600080fd5b600080fd5b600080fd5b6000601f19601f8301169050919050565b7f4e487b7100000000000000000000000000000000000000000000000000000000600052604160045260246000fd5b620002b08262000265565b810181811067ffffffffffffffff82111715620002d257620002d162000276565b5b80604052505050565b6000620002e762000247565b9050620002f58282620002a5565b919050565b600067ffffffffffffffff82111562000318576200031762000276565b5b620003238262000265565b9050602081019050919050565b60005b838110156200035057808201518184015260208101905062000333565b8381111562000360576000848401525b50505050565b60006200037d6200037784620002fa565b620002db565b9050828152602081018484840111156200039c576200039b62000260565b5b620003a984828562000330565b509392505050565b600082601f830112620003c957620003c86200025b565b5b8151620003db84826020860162000366565b91505092915050565b600060208284031215620003fd57620003fc62000251565b5b600082015167ffffffffffffffff8111156200041e576200041d62000256565b5b6200042c84828501620003b1565b91505092915050565b7f4e487b7100000000000000000000000000000000000000000000000000000000600052602260045260246000fd5b600060028204905060018216806200047d57607f821691505b6020821081141562000494576200049362000435565b5b50919050565b611b6480620004aa6000396000f3fe608060405234801561001057600080fd5b50600436106101005760003560e01c8063715018a611610097578063a457c2d711610066578063a457c2d71461029d578063a9059cbb146102cd578063dd62ed3e146102fd578063f2fde38b1461032d57610100565b8063715018a61461023b5780638da5cb5b1461024557806395d89b4114610263578063a0712d681461028157610100565b8063313ce567116100d3578063313ce567146101a157806339509351146101bf57806342966c68146101ef57806370a082311461020b57610100565b806306fdde0314610105578063095ea7b31461012357806318160ddd1461015357806323b872dd14610171575b600080fd5b61010d610349565b60405161011a9190611139565b60405180910390f35b61013d600480360381019061013891906111f4565b6103db565b60405161014a919061124f565b60405180910390f35b61015b6103fe565b6040516101689190611279565b60405180910390f35b61018b60048036038101906101869190611294565b610408565b604051610198919061124f565b60405180910390f35b6101a9610437565b6040516101b69190611303565b60405180910390f35b6101d960048036038101906101d491906111f4565b610440565b6040516101e6919061124f565b60405180910390f35b6102096004803603810190610204919061131e565b610477565b005b6102256004803603810190610220919061134b565b610484565b6040516102329190611279565b60405180910390f35b6102436104cc565b005b61024d6104e0565b60405161025a9190611387565b60405180910390f35b61026b61050a565b6040516102789190611139565b60405180910390f35b61029b6004803603810190610296919061131e565b61059c565b005b6102b760048036038101906102b291906111f4565b6105b1565b6040516102c4919061124f565b60405180910390f35b6102e760048036038101906102e291906111f4565b610628565b6040516102f4919061124f565b60405180910390f35b610317600480360381019061031291906113a2565b61064b565b6040516103249190611279565b60405180910390f35b6103476004803603810190610342919061134b565b6106d2565b005b60606003805461035890611411565b80601f016020809104026020016040519081016040528092919081815260200182805461038490611411565b80156103d15780601f106103a6576101008083540402835291602001916103d1565b820191906000526020600020905b8154815290600101906020018083116103b457829003601f168201915b5050505050905090565b6000806103e6610756565b90506103f381858561075e565b600191505092915050565b6000600254905090565b600080610413610756565b9050610420858285610929565b61042b8585856109b5565b60019150509392505050565b60006012905090565b60008061044b610756565b905061046c81858561045d858961064b565b6104679190611472565b61075e565b600191505092915050565b6104813382610c2d565b50565b60008060008373ffffffffffffffffffffffffffffffffffffffff1673ffffffffffffffffffffffffffffffffffffffff168152602001908152602001600020549050919050565b6104d4610dfb565b6104de6000610e79565b565b6000600560009054906101000a900473ffffffffffffffffffffffffffffffffffffffff16905090565b60606004805461051990611411565b80601f016020809104026020016040519081016040528092919081815260200182805461054590611411565b80156105925780601f1061056757610100808354040283529160200191610592565b820191906000526020600020905b81548152906001019060200180831161057557829003601f168201915b5050505050905090565b6105a4610dfb565b6105ae3382610f3f565b50565b6000806105bc610756565b905060006105ca828661064b565b90508381101561060f576040517f08c379a00000000000000000000000000000000000000000000000000000000081526004016106069061153a565b60405180910390fd5b61061c828686840361075e565b60019250505092915050565b600080610633610756565b90506106408185856109b5565b600191505092915050565b6000600160008473ffffffffffffffffffffffffffffffffffffffff1673ffffffffffffffffffffffffffffffffffffffff16815260200190815260200160002060008373ffffffffffffffffffffffffffffffffffffffff1673ffffffffffffffffffffffffffffffffffffffff16815260200190815260200160002054905092915050565b6106da610dfb565b600073ffffffffffffffffffffffffffffffffffffffff168173ffffffffffffffffffffffffffffffffffffffff16141561074a576040517f08c379a0000000000000000000000000000000000000000000000000000000008152600401610741906115cc565b60405180910390fd5b61075381610e79565b50565b600033905090565b600073ffffffffffffffffffffffffffffffffffffffff168373ffffffffffffffffffffffffffffffffffffffff1614156107ce576040517f08c379a00000000000000000000000000000000000000000000000000000000081526004016107c59061165e565b60405180910390fd5b600073ffffffffffffffffffffffffffffffffffffffff168273ffffffffffffffffffffffffffffffffffffffff16141561083e576040517f08c379a0000000000000000000000000000000000000000000000000000000008152600401610835906116f0565b60405180910390fd5b80600160008573ffffffffffffffffffffffffffffffffffffffff1673ffffffffffffffffffffffffffffffffffffffff16815260200190815260200160002060008473ffffffffffffffffffffffffffffffffffffffff1673ffffffffffffffffffffffffffffffffffffffff168152602001908152602001600020819055508173ffffffffffffffffffffffffffffffffffffffff168373ffffffffffffffffffffffffffffffffffffffff167f8c5be1e5ebec7d5bd14f71427d1e84f3dd0314c0f7b2291e5b200ac8c7c3b9258360405161091c9190611279565b60405180910390a3505050565b6000610935848461064b565b90507fffffffffffffffffffffffffffffffffffffffffffffffffffffffffffffffff81146109af57818110156109a1576040517f08c379a00000000000000000000000000000000000000000000000000000000081526004016109989061175c565b60405180910390fd5b6109ae848484840361075e565b5b50505050565b600073ffffffffffffffffffffffffffffffffffffffff168373ffffffffffffffffffffffffffffffffffffffff161415610a25576040517f08c379a0000000000000000000000000000000000000000000000000000000008152600401610a1c906117ee565b60405180910390fd5b600073ffffffffffffffffffffffffffffffffffffffff168273ffffffffffffffffffffffffffffffffffffffff161415610a95576040517f08c379a0000000000000000000000000000000000000000000000000000000008152600401610a8c90611880565b60405180910390fd5b610aa0838383611096565b60008060008573ffffffffffffffffffffffffffffffffffffffff1673ffffffffffffffffffffffffffffffffffffffff16815260200190815260200160002054905081811015610b26576040517f08c379a0000000000000000000000000000000000000000000000000000000008152600401610b1d90611912565b60405180910390fd5b8181036000808673ffffffffffffffffffffffffffffffffffffffff1673ffffffffffffffffffffffffffffffffffffffff16815260200190815260200160002081905550816000808573ffffffffffffffffffffffffffffffffffffffff1673ffffffffffffffffffffffffffffffffffffffff168152602001908152602001600020600082825401925050819055508273ffffffffffffffffffffffffffffffffffffffff168473ffffffffffffffffffffffffffffffffffffffff167fddf252ad1be2c89b69c2b068fc378daa952ba7f163c4a11628f55a4df523b3ef84604051610c149190611279565b60405180910390a3610c2784848461109b565b50505050565b600073ffffffffffffffffffffffffffffffffffffffff168273ffffffffffffffffffffffffffffffffffffffff161415610c9d576040517f08c379a0000000000000000000000000000000000000000000000000000000008152600401610c94906119a4565b60405180910390fd5b610ca982600083611096565b60008060008473ffffffffffffffffffffffffffffffffffffffff1673ffffffffffffffffffffffffffffffffffffffff16815260200190815260200160002054905081811015610d2f576040517f08c379a0000000000000000000000000000000000000000000000000000000008152600401610d2690611a36565b60405180910390fd5b8181036000808573ffffffffffffffffffffffffffffffffffffffff1673ffffffffffffffffffffffffffffffffffffffff1681526020019081526020016000208190555081600260008282540392505081905550600073ffffffffffffffffffffffffffffffffffffffff168373ffffffffffffffffffffffffffffffffffffffff167fddf252ad1be2c89b69c2b068fc378daa952ba7f163c4a11628f55a4df523b3ef84604051610de29190611279565b60405180910390a3610df68360008461109b565b505050565b610e03610756565b73ffffffffffffffffffffffffffffffffffffffff16610e216104e0565b73ffffffffffffffffffffffffffffffffffffffff1614610e77576040517f08c379a0000000000000000000000000000000000000000000000000000000008152600401610e6e90611aa2565b60405180910390fd5b565b6000600560009054906101000a900473ffffffffffffffffffffffffffffffffffffffff16905081600560006101000a81548173ffffffffffffffffffffffffffffffffffffffff021916908373ffffffffffffffffffffffffffffffffffffffff1602179055508173ffffffffffffffffffffffffffffffffffffffff168173ffffffffffffffffffffffffffffffffffffffff167f8be0079c531659141344cd1fd0a4f28419497f9722a3daafe3b4186f6b6457e060405160405180910390a35050565b600073ffffffffffffffffffffffffffffffffffffffff168273ffffffffffffffffffffffffffffffffffffffff161415610faf576040517f08c379a0000000000000000000000000000000000000000000000000000000008152600401610fa690611b0e565b60405180910390fd5b610fbb60008383611096565b8060026000828254610fcd9190611472565b92505081905550806000808473ffffffffffffffffffffffffffffffffffffffff1673ffffffffffffffffffffffffffffffffffffffff168152602001908152602001600020600082825401925050819055508173ffffffffffffffffffffffffffffffffffffffff16600073ffffffffffffffffffffffffffffffffffffffff167fddf252ad1be2c89b69c2b068fc378daa952ba7f163c4a11628f55a4df523b3ef8360405161107e9190611279565b60405180910390a36110926000838361109b565b5050565b505050565b505050565b600081519050919050565b600082825260208201905092915050565b60005b838110156110da5780820151818401526020810190506110bf565b838111156110e9576000848401525b50505050565b6000601f19601f8301169050919050565b600061110b826110a0565b61111581856110ab565b93506111258185602086016110bc565b61112e816110ef565b840191505092915050565b600060208201905081810360008301526111538184611100565b905092915050565b600080fd5b600073ffffffffffffffffffffffffffffffffffffffff82169050919050565b600061118b82611160565b9050919050565b61119b81611180565b81146111a657600080fd5b50565b6000813590506111b881611192565b92915050565b6000819050919050565b6111d1816111be565b81146111dc57600080fd5b50565b6000813590506111ee816111c8565b92915050565b6000806040838503121561120b5761120a61115b565b5b6000611219858286016111a9565b925050602061122a858286016111df565b9150509250929050565b60008115159050919050565b61124981611234565b82525050565b60006020820190506112646000830184611240565b92915050565b611273816111be565b82525050565b600060208201905061128e600083018461126a565b92915050565b6000806000606084860312156112ad576112ac61115b565b5b60006112bb868287016111a9565b93505060206112cc868287016111a9565b92505060406112dd868287016111df565b9150509250925092565b600060ff82169050919050565b6112fd816112e7565b82525050565b600060208201905061131860008301846112f4565b92915050565b6000602082840312156113345761133361115b565b5b6000611342848285016111df565b91505092915050565b6000602082840312156113615761136061115b565b5b600061136f848285016111a9565b91505092915050565b61138181611180565b82525050565b600060208201905061139c6000830184611378565b92915050565b600080604083850312156113b9576113b861115b565b5b60006113c7858286016111a9565b92505060206113d8858286016111a9565b9150509250929050565b7f4e487b7100000000000000000000000000000000000000000000000000000000600052602260045260246000fd5b6000600282049050600182168061142957607f821691505b6020821081141561143d5761143c6113e2565b5b50919050565b7f4e487b7100000000000000000000000000000000000000000000000000000000600052601160045260246000fd5b600061147d826111be565b9150611488836111be565b9250827fffffffffffffffffffffffffffffffffffffffffffffffffffffffffffffffff038211156114bd576114bc611443565b5b828201905092915050565b7f45524332303a2064656372656173656420616c6c6f77616e63652062656c6f7760008201527f207a65726f000000000000000000000000000000000000000000000000000000602082015250565b60006115246025836110ab565b915061152f826114c8565b604082019050919050565b6000602082019050818103600083015261155381611517565b9050919050565b7f4f776e61626c653a206e6577206f776e657220697320746865207a65726f206160008201527f6464726573730000000000000000000000000000000000000000000000000000602082015250565b60006115b66026836110ab565b91506115c18261155a565b604082019050919050565b600060208201905081810360008301526115e5816115a9565b9050919050565b7f45524332303a20617070726f76652066726f6d20746865207a65726f2061646460008201527f7265737300000000000000000000000000000000000000000000000000000000602082015250565b60006116486024836110ab565b9150611653826115ec565b604082019050919050565b600060208201905081810360008301526116778161163b565b9050919050565b7f45524332303a20617070726f766520746f20746865207a65726f20616464726560008201527f7373000000000000000000000000000000000000000000000000000000000000602082015250565b60006116da6022836110ab565b91506116e58261167e565b604082019050919050565b60006020820190508181036000830152611709816116cd565b9050919050565b7f45524332303a20696e73756666696369656e7420616c6c6f77616e6365000000600082015250565b6000611746601d836110ab565b915061175182611710565b602082019050919050565b6000602082019050818103600083015261177581611739565b9050919050565b7f45524332303a207472616e736665722066726f6d20746865207a65726f20616460008201527f6472657373000000000000000000000000000000000000000000000000000000602082015250565b60006117d86025836110ab565b91506117e38261177c565b604082019050919050565b60006020820190508181036000830152611807816117cb565b9050919050565b7f45524332303a207472616e7366657220746f20746865207a65726f206164647260008201527f6573730000000000000000000000000000000000000000000000000000000000602082015250565b600061186a6023836110ab565b91506118758261180e565b604082019050919050565b600060208201905081810360008301526118998161185d565b9050919050565b7f45524332303a207472616e7366657220616d6f756e742065786365656473206260008201527f616c616e63650000000000000000000000000000000000000000000000000000602082015250565b60006118fc6026836110ab565b9150611907826118a0565b604082019050919050565b6000602082019050818103600083015261192b816118ef565b9050919050565b7f45524332303a206275726e2066726f6d20746865207a65726f2061646472657360008201527f7300000000000000000000000000000000000000000000000000000000000000602082015250565b600061198e6021836110ab565b915061199982611932565b604082019050919050565b600060208201905081810360008301526119bd81611981565b9050919050565b7f45524332303a206275726e20616d6f756e7420657863656564732062616c616e60008201527f6365000000000000000000000000000000000000000000000000000000000000602082015250565b6000611a206022836110ab565b9150611a2b826119c4565b604082019050919050565b60006020820190508181036000830152611a4f81611a13565b9050919050565b7f4f776e61626c653a2063616c6c6572206973206e6f7420746865206f776e6572600082015250565b6000611a8c6020836110ab565b9150611a9782611a56565b602082019050919050565b60006020820190508181036000830152611abb81611a7f565b9050919050565b7f45524332303a206d696e7420746f20746865207a65726f206164647265737300600082015250565b6000611af8601f836110ab565b9150611b0382611ac2565b602082019050919050565b60006020820190508181036000830152611b2781611aeb565b905091905056fea26469706673582212206f4a2084b1f462509fd9b367a2c4099a36221b4428f90974a4e85e73897b56f964736f6c6343000809003360806040523480156200001157600080fd5b506040516200200e3803806200200e8339818101604052810190620000379190620003e4565b806040518060400160405280600381526020017f4e4547000000000000000000000000000000000000000000000000000000000081525081600390805190602001906200008692919062000197565b5080600490805190602001906200009f92919062000197565b505050620000c2620000b6620000c960201b60201c565b620000d160201b60201c565b506200049a565b600033905090565b6000600560009054906101000a900473ffffffffffffffffffffffffffffffffffffffff16905081600560006101000a81548173ffffffffffffffffffffffffffffffffffffffff021916908373ffffffffffffffffffffffffffffffffffffffff1602179055508173ffffffffffffffffffffffffffffffffffffffff168173ffffffffffffffffffffffffffffffffffffffff167f8be0079c531659141344cd1fd0a4f28419497f9722a3daafe3b4186f6b6457e060405160405180910390a35050565b828054620001a59062000464565b90600052602060002090601f016020900481019282620001c9576000855562000215565b82601f10620001e457805160ff191683800117855562000215565b8280016001018555821562000215579182015b8281111562000214578251825591602001919060010190620001f7565b5b50905062000224919062000228565b5090565b5b808211156200024357600081600090555060010162000229565b5090565b6000604051905090565b600080fd5b600080fd5b600080fd5b600080fd5b6000601f19601f8301169050919050565b7f4e487b7100000000000000000000000000000000000000000000000000000000600052604160045260246000fd5b620002b08262000265565b810181811067ffffffffffffffff82111715620002d257620002d162000276565b5b80604052505050565b6000620002e762000247565b9050620002f58282620002a5565b919050565b600067ffffffffffffffff82111562000318576200031762000276565b5b620003238262000265565b9050602081019050919050565b60005b838110156200035057808201518184015260208101905062000333565b8381111562000360576000848401525b50505050565b60006200037d6200037784620002fa565b620002db565b9050828152602081018484840111156200039c576200039b62000260565b5b620003a984828562000330565b509392505050565b600082601f830112620003c957620003c86200025b565b5b8151620003db84826020860162000366565b91505092915050565b600060208284031215620003fd57620003fc62000251565b5b600082015167ffffffffffffffff8111156200041e576200041d62000256565b5b6200042c84828501620003b1565b91505092915050565b7f4e487b7100000000000000000000000000000000000000000000000000000000600052602260045260246000fd5b600060028204905060018216806200047d57607f821691505b6020821081141562000494576200049362000435565b5b50919050565b611b6480620004aa6000396000f3fe608060405234801561001057600080fd5b50600436106101005760003560e01c8063715018a611610097578063a457c2d711610066578063a457c2d71461029d578063a9059cbb146102cd578063dd62ed3e146102fd578063f2fde38b1461032d57610100565b8063715018a61461023b5780638da5cb5b1461024557806395d89b4114610263578063a0712d681461028157610100565b8063313ce567116100d3578063313ce567146101a157806339509351146101bf57806342966c68146101ef57806370a082311461020b57610100565b806306fdde0314610105578063095ea7b31461012357806318160ddd1461015357806323b872dd14610171575b600080fd5b61010d610349565b60405161011a9190611139565b60405180910390f35b61013d600480360381019061013891906111f4565b6103db565b60405161014a919061124f565b60405180910390f35b61015b6103fe565b6040516101689190611279565b60405180910390f35b61018b60048036038101906101869190611294565b610408565b604051610198919061124f565b60405180910390f35b6101a9610437565b6040516101b69190611303565b60405180910390f35b6101d960048036038101906101d491906111f4565b610440565b6040516101e6919061124f565b60405180910390f35b6102096004803603810190610204919061131e565b610477565b005b6102256004803603810190610220919061134b565b610484565b6040516102329190611279565b60405180910390f35b6102436104cc565b005b61024d6104e0565b60405161025a9190611387565b60405180910390f35b61026b61050a565b6040516102789190611139565b60405180910390f35b61029b6004803603810190610296919061131e565b61059c565b005b6102b760048036038101906102b291906111f4565b6105b1565b6040516102c4919061124f565b60405180910390f35b6102e760048036038101906102e291906111f4565b610628565b6040516102f4919061124f565b60405180910390f35b610317600480360381019061031291906113a2565b61064b565b6040516103249190611279565b60405180910390f35b6103476004803603810190610342919061134b565b6106d2565b005b60606003805461035890611411565b80601f016020809104026020016040519081016040528092919081815260200182805461038490611411565b80156103d15780601f106103a6576101008083540402835291602001916103d1565b820191906000526020600020905b8154815290600101906020018083116103b457829003601f168201915b5050505050905090565b6000806103e6610756565b90506103f381858561075e565b600191505092915050565b6000600254905090565b600080610413610756565b9050610420858285610929565b61042b8585856109b5565b60019150509392505050565b60006012905090565b60008061044b610756565b905061046c81858561045d858961064b565b6104679190611472565b61075e565b600191505092915050565b6104813382610c2d565b50565b60008060008373ffffffffffffffffffffffffffffffffffffffff1673ffffffffffffffffffffffffffffffffffffffff168152602001908152602001600020549050919050565b6104d4610dfb565b6104de6000610e79565b565b6000600560009054906101000a900473ffffffffffffffffffffffffffffffffffffffff16905090565b60606004805461051990611411565b80601f016020809104026020016040519081016040528092919081815260200182805461054590611411565b80156105925780601f1061056757610100808354040283529160200191610592565b820191906000526020600020905b81548152906001019060200180831161057557829003601f168201915b5050505050905090565b6105a4610dfb565b6105ae3382610f3f565b50565b6000806105bc610756565b905060006105ca828661064b565b90508381101561060f576040517f08c379a00000000000000000000000000000000000000000000000000000000081526004016106069061153a565b60405180910390fd5b61061c828686840361075e565b60019250505092915050565b600080610633610756565b90506106408185856109b5565b600191505092915050565b6000600160008473ffffffffffffffffffffffffffffffffffffffff1673ffffffffffffffffffffffffffffffffffffffff16815260200190815260200160002060008373ffffffffffffffffffffffffffffffffffffffff1673ffffffffffffffffffffffffffffffffffffffff16815260200190815260200160002054905092915050565b6106da610dfb565b600073ffffffffffffffffffffffffffffffffffffffff168173ffffffffffffffffffffffffffffffffffffffff16141561074a576040517f08c379a0000000000000000000000000000000000000000000000000000000008152600401610741906115cc565b60405180910390fd5b61075381610e79565b50565b600033905090565b600073ffffffffffffffffffffffffffffffffffffffff168373ffffffffffffffffffffffffffffffffffffffff1614156107ce576040517f08c379a00000000000000000000000000000000000000000000000000000000081526004016107c59061165e565b60405180910390fd5b600073ffffffffffffffffffffffffffffffffffffffff168273ffffffffffffffffffffffffffffffffffffffff16141561083e576040517f08c379a0000000000000000000000000000000000000000000000000000000008152600401610835906116f0565b60405180910390fd5b80600160008573ffffffffffffffffffffffffffffffffffffffff1673ffffffffffffffffffffffffffffffffffffffff16815260200190815260200160002060008473ffffffffffffffffffffffffffffffffffffffff1673ffffffffffffffffffffffffffffffffffffffff168152602001908152602001600020819055508173ffffffffffffffffffffffffffffffffffffffff168373ffffffffffffffffffffffffffffffffffffffff167f8c5be1e5ebec7d5bd14f71427d1e84f3dd0314c0f7b2291e5b200ac8c7c3b9258360405161091c9190611279565b60405180910390a3505050565b6000610935848461064b565b90507fffffffffffffffffffffffffffffffffffffffffffffffffffffffffffffffff81146109af57818110156109a1576040517f08c379a00000000000000000000000000000000000000000000000000000000081526004016109989061175c565b60405180910390fd5b6109ae848484840361075e565b5b50505050565b600073ffffffffffffffffffffffffffffffffffffffff168373ffffffffffffffffffffffffffffffffffffffff161415610a25576040517f08c379a0000000000000000000000000000000000000000000000000000000008152600401610a1c906117ee565b60405180910390fd5b600073ffffffffffffffffffffffffffffffffffffffff168273ffffffffffffffffffffffffffffffffffffffff161415610a95576040517f08c379a0000000000000000000000000000000000000000000000000000000008152600401610a8c90611880565b60405180910390fd5b610aa0838383611096565b60008060008573ffffffffffffffffffffffffffffffffffffffff1673ffffffffffffffffffffffffffffffffffffffff16815260200190815260200160002054905081811015610b26576040517f08c379a0000000000000000000000000000000000000000000000000000000008152600401610b1d90611912565b60405180910390fd5b8181036000808673ffffffffffffffffffffffffffffffffffffffff1673ffffffffffffffffffffffffffffffffffffffff16815260200190815260200160002081905550816000808573ffffffffffffffffffffffffffffffffffffffff1673ffffffffffffffffffffffffffffffffffffffff168152602001908152602001600020600082825401925050819055508273ffffffffffffffffffffffffffffffffffffffff168473ffffffffffffffffffffffffffffffffffffffff167fddf252ad1be2c89b69c2b068fc378daa952ba7f163c4a11628f55a4df523b3ef84604051610c149190611279565b60405180910390a3610c2784848461109b565b50505050565b600073ffffffffffffffffffffffffffffffffffffffff168273ffffffffffffffffffffffffffffffffffffffff161415610c9d576040517f08c379a0000000000000000000000000000000000000000000000000000000008152600401610c94906119a4565b60405180910390fd5b610ca982600083611096565b60008060008473ffffffffffffffffffffffffffffffffffffffff1673ffffffffffffffffffffffffffffffffffffffff16815260200190815260200160002054905081811015610d2f576040517f08c379a0000000000000000000000000000000000000000000000000000000008152600401610d2690611a36565b60405180910390fd5b8181036000808573ffffffffffffffffffffffffffffffffffffffff1673ffffffffffffffffffffffffffffffffffffffff1681526020019081526020016000208190555081600260008282540392505081905550600073ffffffffffffffffffffffffffffffffffffffff168373ffffffffffffffffffffffffffffffffffffffff167fddf252ad1be2c89b69c2b068fc378daa952ba7f163c4a11628f55a4df523b3ef84604051610de29190611279565b60405180910390a3610df68360008461109b565b505050565b610e03610756565b73ffffffffffffffffffffffffffffffffffffffff16610e216104e0565b73ffffffffffffffffffffffffffffffffffffffff1614610e77576040517f08c379a0000000000000000000000000000000000000000000000000000000008152600401610e6e90611aa2565b60405180910390fd5b565b6000600560009054906101000a900473ffffffffffffffffffffffffffffffffffffffff16905081600560006101000a81548173ffffffffffffffffffffffffffffffffffffffff021916908373ffffffffffffffffffffffffffffffffffffffff1602179055508173ffffffffffffffffffffffffffffffffffffffff168173ffffffffffffffffffffffffffffffffffffffff167f8be0079c531659141344cd1fd0a4f28419497f9722a3daafe3b4186f6b6457e060405160405180910390a35050565b600073ffffffffffffffffffffffffffffffffffffffff168273ffffffffffffffffffffffffffffffffffffffff161415610faf576040517f08c379a0000000000000000000000000000000000000000000000000000000008152600401610fa690611b0e565b60405180910390fd5b610fbb60008383611096565b8060026000828254610fcd9190611472565b92505081905550806000808473ffffffffffffffffffffffffffffffffffffffff1673ffffffffffffffffffffffffffffffffffffffff168152602001908152602001600020600082825401925050819055508173ffffffffffffffffffffffffffffffffffffffff16600073ffffffffffffffffffffffffffffffffffffffff167fddf252ad1be2c89b69c2b068fc378daa952ba7f163c4a11628f55a4df523b3ef8360405161107e9190611279565b60405180910390a36110926000838361109b565b5050565b505050565b505050565b600081519050919050565b600082825260208201905092915050565b60005b838110156110da5780820151818401526020810190506110bf565b838111156110e9576000848401525b50505050565b6000601f19601f8301169050919050565b600061110b826110a0565b61111581856110ab565b93506111258185602086016110bc565b61112e816110ef565b840191505092915050565b600060208201905081810360008301526111538184611100565b905092915050565b600080fd5b600073ffffffffffffffffffffffffffffffffffffffff82169050919050565b600061118b82611160565b9050919050565b61119b81611180565b81146111a657600080fd5b50565b6000813590506111b881611192565b92915050565b6000819050919050565b6111d1816111be565b81146111dc57600080fd5b50565b6000813590506111ee816111c8565b92915050565b6000806040838503121561120b5761120a61115b565b5b6000611219858286016111a9565b925050602061122a858286016111df565b9150509250929050565b60008115159050919050565b61124981611234565b82525050565b60006020820190506112646000830184611240565b92915050565b611273816111be565b82525050565b600060208201905061128e600083018461126a565b92915050565b6000806000606084860312156112ad576112ac61115b565b5b60006112bb868287016111a9565b93505060206112cc868287016111a9565b92505060406112dd868287016111df565b9150509250925092565b600060ff82169050919050565b6112fd816112e7565b82525050565b600060208201905061131860008301846112f4565b92915050565b6000602082840312156113345761133361115b565b5b6000611342848285016111df565b91505092915050565b6000602082840312156113615761136061115b565b5b600061136f848285016111a9565b91505092915050565b61138181611180565b82525050565b600060208201905061139c6000830184611378565b92915050565b600080604083850312156113b9576113b861115b565b5b60006113c7858286016111a9565b92505060206113d8858286016111a9565b9150509250929050565b7f4e487b7100000000000000000000000000000000000000000000000000000000600052602260045260246000fd5b6000600282049050600182168061142957607f821691505b6020821081141561143d5761143c6113e2565b5b50919050565b7f4e487b7100000000000000000000000000000000000000000000000000000000600052601160045260246000fd5b600061147d826111be565b9150611488836111be565b9250827fffffffffffffffffffffffffffffffffffffffffffffffffffffffffffffffff038211156114bd576114bc611443565b5b828201905092915050565b7f45524332303a2064656372656173656420616c6c6f77616e63652062656c6f7760008201527f207a65726f000000000000000000000000000000000000000000000000000000602082015250565b60006115246025836110ab565b915061152f826114c8565b604082019050919050565b6000602082019050818103600083015261155381611517565b9050919050565b7f4f776e61626c653a206e6577206f776e657220697320746865207a65726f206160008201527f6464726573730000000000000000000000000000000000000000000000000000602082015250565b60006115b66026836110ab565b91506115c18261155a565b604082019050919050565b600060208201905081810360008301526115e5816115a9565b9050919050565b7f45524332303a20617070726f76652066726f6d20746865207a65726f2061646460008201527f7265737300000000000000000000000000000000000000000000000000000000602082015250565b60006116486024836110ab565b9150611653826115ec565b604082019050919050565b600060208201905081810360008301526116778161163b565b9050919050565b7f45524332303a20617070726f766520746f20746865207a65726f20616464726560008201527f7373000000000000000000000000000000000000000000000000000000000000602082015250565b60006116da6022836110ab565b91506116e58261167e565b604082019050919050565b60006020820190508181036000830152611709816116cd565b9050919050565b7f45524332303a20696e73756666696369656e7420616c6c6f77616e6365000000600082015250565b6000611746601d836110ab565b915061175182611710565b602082019050919050565b6000602082019050818103600083015261177581611739565b9050919050565b7f45524332303a207472616e736665722066726f6d20746865207a65726f20616460008201527f6472657373000000000000000000000000000000000000000000000000000000602082015250565b60006117d86025836110ab565b91506117e38261177c565b604082019050919050565b60006020820190508181036000830152611807816117cb565b9050919050565b7f45524332303a207472616e7366657220746f20746865207a65726f206164647260008201527f6573730000000000000000000000000000000000000000000000000000000000602082015250565b600061186a6023836110ab565b91506118758261180e565b604082019050919050565b600060208201905081810360008301526118998161185d565b9050919050565b7f45524332303a207472616e7366657220616d6f756e742065786365656473206260008201527f616c616e63650000000000000000000000000000000000000000000000000000602082015250565b60006118fc6026836110ab565b9150611907826118a0565b604082019050919050565b6000602082019050818103600083015261192b816118ef565b9050919050565b7f45524332303a206275726e2066726f6d20746865207a65726f2061646472657360008201527f7300000000000000000000000000000000000000000000000000000000000000602082015250565b600061198e6021836110ab565b915061199982611932565b604082019050919050565b600060208201905081810360008301526119bd81611981565b9050919050565b7f45524332303a206275726e20616d6f756e7420657863656564732062616c616e60008201527f6365000000000000000000000000000000000000000000000000000000000000602082015250565b6000611a206022836110ab565b9150611a2b826119c4565b604082019050919050565b60006020820190508181036000830152611a4f81611a13565b9050919050565b7f4f776e61626c653a2063616c6c6572206973206e6f7420746865206f776e6572600082015250565b6000611a8c6020836110ab565b9150611a9782611a56565b602082019050919050565b60006020820190508181036000830152611abb81611a7f565b9050919050565b7f45524332303a206d696e7420746f20746865207a65726f206164647265737300600082015250565b6000611af8601f836110ab565b9150611b0382611ac2565b602082019050919050565b60006020820190508181036000830152611b2781611aeb565b905091905056fea26469706673582212208ccc48071fb70added11404669e80d7c0762d2226ab6d6f295e9c3a29134520a64736f6c63430008090033608060405234801561001057600080fd5b5060405161055f38038061055f833981810160405281019061003291906100db565b806000806101000a81548173ffffffffffffffffffffffffffffffffffffffff021916908373ffffffffffffffffffffffffffffffffffffffff16021790555050610108565b600080fd5b600073ffffffffffffffffffffffffffffffffffffffff82169050919050565b60006100a88261007d565b9050919050565b6100b88161009d565b81146100c357600080fd5b50565b6000815190506100d5816100af565b92915050565b6000602082840312156100f1576100f0610078565b5b60006100ff848285016100c6565b91505092915050565b610448806101176000396000f3fe608060405234801561001057600080fd5b50600436106100365760003560e01c8063741bef1a1461003b5780638e15f47314610059575b600080fd5b610043610077565b60405161005091906101d7565b60405180910390f35b61006161009b565b60405161006e919061020b565b60405180910390f35b60008054906101000a900473ffffffffffffffffffffffffffffffffffffffff1681565b60008060008054906101000a900473ffffffffffffffffffffffffffffffffffffffff1673ffffffffffffffffffffffffffffffffffffffff1663feaf968c6040518163ffffffff1660e01b815260040160a06040518083038186803b15801561010457600080fd5b505afa158015610118573d6000803e3d6000fd5b505050506040513d601f19601f8201168201806040525081019061013c91906102cf565b5050509150506305f5e1008161015291906103a8565b91505090565b600073ffffffffffffffffffffffffffffffffffffffff82169050919050565b6000819050919050565b600061019d61019861019384610158565b610178565b610158565b9050919050565b60006101af82610182565b9050919050565b60006101c1826101a4565b9050919050565b6101d1816101b6565b82525050565b60006020820190506101ec60008301846101c8565b92915050565b6000819050919050565b610205816101f2565b82525050565b600060208201905061022060008301846101fc565b92915050565b600080fd5b600069ffffffffffffffffffff82169050919050565b61024a8161022b565b811461025557600080fd5b50565b60008151905061026781610241565b92915050565b610276816101f2565b811461028157600080fd5b50565b6000815190506102938161026d565b92915050565b6000819050919050565b6102ac81610299565b81146102b757600080fd5b50565b6000815190506102c9816102a3565b92915050565b600080600080600060a086880312156102eb576102ea610226565b5b60006102f988828901610258565b955050602061030a88828901610284565b945050604061031b888289016102ba565b935050606061032c888289016102ba565b925050608061033d88828901610258565b9150509295509295909350565b7f4e487b7100000000000000000000000000000000000000000000000000000000600052601260045260246000fd5b7f4e487b7100000000000000000000000000000000000000000000000000000000600052601160045260246000fd5b60006103b3826101f2565b91506103be836101f2565b9250826103ce576103cd61034a565b5b600160000383147f80000000000000000000000000000000000000000000000000000000000000008314161561040757610406610379565b5b82820590509291505056fea26469706673582212202e58456e6afdf43a5c43ea4dcc8104d1eafe4c9eeff83a1a0c68e6c4b278034764736f6c63430008090033",
  "linkReferences": {},
  "deployedLinkReferences": {}
}